:020000040800F2
:20000000580E0020E14C0008514B0008534B000800000000000000000000000000000000DB
:20002000000000000000000000000000554B00080000000000000000574B0008594B0008C2
:200040000737000800000000D3380008CB3A0008BB3E00089B4B00080B450008A54B0008FB
:2000600000000000D94B00083F4A00084F4B0008D34C0008DF4C0008054D0008000000006D
:20008000074D0008834B000800000000094D0008654B00080B4D00080D4D00080F4D0008F2
:2000A000114D0008134D0008154D0008C14B0008C74B0008F7B5040001278B4D2F76A87E5F
:2000C000401C0026C0B2032800DB0020A876A97E684600F0A0FF002800D102E1A87E00285A
:2000E00055D1E8680002694609780143E9606846297B8170A97B4170E97B687BC243AC2992
:2001000001D0982903D168464078D2B2904200D0E7E0982901D1012000E00020029908705F
:20012000EF766E760121684600F075FF0028F9D028690002694609780143296102216846EF
:2001400000F069FF0028F9D0686900026946097801436961E889698A884202D1E87E401C82
:20016000E876E889E98A884202D1E87E401CE876E87E022800DB2E766846407820706846CD
:20018000807860702869A070E41C6869A6E0012851D1296909026A4612780A432A616946F6
:2001A000AA7C4A70E97C6B7CDA43AC2901D0982942D16B465B78D2B293423DD1982901D1FE
:2001C000012100E00021029A1170EF7668760221684600F020FF0028F9D068690002694649
:2001E0000978014369610021684600F014FF0028F9D0E8680002694609780143E960688AAC
:20020000E989884202D1E87E401CE876688AE98A884202D1E87E401CE876E87E022800DB22
:200220002E76684640782070286960706869A070E41CE86852E0022853D1696909026A4685
:2002400012780A436A616946AA7D4A70E97D6B7DDA43AC2901D0982943D16B465B78D2B27E
:2002600093423ED1982901D1012100E00021029A1170EF7668760021684600F0CCFE0028D3
:20028000F9D0E8680002694609780143E9600121684600F0C0FE0028F9D0286900026946D5
:2002A000097801432961E88AE989884202D1E87E401CE876E88A698A884202D1E87E401C8A
:2002C000E876E87E022800DB2E7668464078207068696070E868A070E41C28692070A87E73
:2002E0005EE30120FEBD000014050020F7B5040001278B4D2F76287F401C0026C0B203288D
:2003000000DB00202877297F684600F09FFE002800D103E1287F002856D12868000169464D
:200320000978014329602878694688706846A9784170E9786878C243AC2901D0982903D127
:2003400068464078D2B2904200D0E7E0982901D1012000E00020029908706F776E76012197
:20036000684600F073FE0028F9D06868000169460978014369600221684600F067FE002821
:20038000F9D0A8680001694609780143A9606888E988884202D1687F401C68776888698904
:2003A000884202D1687F401C6877687F022800DB2E766846407820706846807860706868B2
:2003C000A070E41CA868A6E0012851D1696809016A4612780A436A606946AA794A70E97912
:2003E0006B79DA43AC2901D0982942D16B465B78D2B293423DD1982901D1012100E00021E1
:020000040800F2
:20040000029A11706F7768760221684600F01EFE0028F9D0A8680001694609780143A9609F
:200420000021684600F012FE0028F9D0286800016946097801432960E8886988884202D170
:20044000687F401C6877E8886989884202D1687F401C6877687F022800DB2E766846407863
:20046000207068686070A868A070E41C286852E0022853D1A96809016A4612780A43AA6070
:200480006946AA7A4A70E97A6B7ADA43AC2901D0982943D16B465B78D2B293423ED1982942
:2004A00001D1012100E00021029A11706F7768760021684600F0CAFD0028F9D0286800015E
:2004C00069460978014329600121684600F0BEFD0028F9D0686800016946097801436960A5
:2004E00068896988884202D1687F401C68776889E988884202D1687F401C6877687F022829
:2005000000DB2E76684640782070A86860702868A070E41C68682070287F41E20120FEBDE0
:2005200014050020F7B504008F4F012038768B4D287B401C0026C0B2032800DB00202873F5
:20054000297B684600F0AAFD002800D103E1287B002856D1286880006946097801432960D6
:20056000287869468870A8784870E9786878C243AC2901D0982903D168464078D2B290421F
:2005800000D0E8E0982901D1012000E0002002990870012068737E760121684600F07EFDD1
:2005A0000028F9D06868800069460978014369600221684600F072FD0028F9D0A86880000C
:2005C000694609780143A9606888E988884202D1687B401C687368886989884202D1687B24
:2005E000401C6873687B022800DB3E766846407820706846807860706868A070E41CA868CC
:20060000A8E0012852D1696889006A4612780A436A60A9796A465170E9796B79DA43AC2990
:2006200001D0982943D16B465B78D2B293423ED1982901D1012100E00021029A1170012133
:20064000697378760221684600F028FD0028F9D0A8688000694609780143A960002168461D
:2006600000F01CFD0028F9D0286880006946097801432960E8886988884202D1687B401C36
:200680006873E8886989884202D1687B401C6873687B022800DB3E76684640782070686804
:2006A0006070A868A070E41C286853E0022852D1A96889006A4612780A43AA60A97A6A463C
:2006C0005170E97A6B7ADA43AC2901D0982942D16B465B78D2B293423DD1982901D10121DA
:2006E00000E00021029A11700121697378760021684600F0D3FC0028F9D0286880006946B2
:200700000978014329600121684600F0C7FC0028F9D0686880006946097801436960688999
:200720006988884202D1687B401C68736889E988884202D1687B401C6873687B022800DB10
:200740003E76684640782070A86860702868A070E41C686822E10120FEBD00002C0A00206A
:20076000F7B50400004F01E01405002001203876AE4D287B401C0026C0B2032800DB0020D9
:200780002873297B684600F0B6FC002800D103E1287B002856D128684000694609780143B7
:2007A0002960287869468870A8784870E9786878C243AC2901D0982903D168464078D2B226
:2007C000904200D0E8E0982901D1012000E0002002990870012068737E760121684600F038
:2007E0008AFC0028F9D06868400069460978014369600221684600F07EFC0028F9D0A868F9
:020000040800F2
:200800004000694609780143A9606888E988884202D1687B401C687368886989884202D184
:20082000687B401C6873687B022800DB3E766846407820706846807860706868A070E41CB6
:20084000A868A8E0012852D1696849006A4612780A436A60A9796A465170E9796B79DA4353
:20086000AC2901D0982943D16B465B78D2B293423ED1982901D1012100E00021029A11703E
:200880000121697378760221684600F034FC0028F9D0A8684000694609780143A96000219C
:2008A000684600F028FC0028F9D0286840006946097801432960E8886988884202D1687BD7
:2008C000401C6873E8886989884202D1687B401C6873687B022800DB3E7668464078207036
:2008E00068686070A868A070E41C286853E0022852D1A96849006A4612780A43AA60A97A1A
:200900006A465170E97A6B7ADA43AC2901D0982942D16B465B78D2B293423DD1982901D109
:20092000012100E00021029A11700121697378760021684600F0DFFB0028F9D02868400031
:2009400069460978014329600121684600F0D3FB0028F9D0686840006946097801436960CE
:2009600068896988884202D1687B401C68736889E988884202D1687B401C6873687B0228B8
:2009800000DB3E76684640782070A86860702868A070E41C686801E00120FEBD2070287B92
:2009A000019908700020FEBDF1B582B0002901D11F4C08E0012901D11E4C04E0022901D1DD
:2009C0001D4C00E01D4C1E4E307E0028717E684620D1A047002826D068460578717E491C11
:2009E000C9B26846A0470028F8D068460778717E891CC9B26846A0470028F8D06846007810
:200A0000AF4204D0854202D0874200D13D000298057006E0A047002805D068460078029907
:200A200008700020FEBD0120FEBD00003C0A00206B100008C5100008291100081B1000084C
:200A4000140500200200002003E01378C018C0B2521C0B00591E1B06F7D17047F1B584B019
:200A6000002000F095FD00AA521C00A9891C01A8FFF758FD002801D1012620E000AA521C41
:200A800000A9891C01A8FFF76BFE002801D1022615E000AA521C00A9891C01A8FFF70AFBDF
:200AA000002801D103260AE000AA521C00A9891C01A8FFF71BFC002800D086E0002600F099
:200AC00064FD01AC207869460870684600780499487268460078F02801D1042076E00746F5
:200AE000E12801DB032071E000250499CD7168464078049988720498807A002811D03100D0
:200B000001A8FFF751FF0028F9D1607800022178401880B200F00CFE6946087068460078B0
:200B200000E060780499087104980079694689788206920F521E914209D102200499C871E4
:200B4000049800680290002811D102203EE04006F6D406203AE031006846FFF725FF002844
:200B6000F9D1684600780299EDB248556D1C3800471E00061BD000F0FDFD0498807A0028EF
:200B8000E9D03100601CFFF70FFF0028F9D1310001A8FFF709FF0028F9D1607800022178BC
:200BA000401880B200F0C4FD69460870D9E7AD1EE9B20298FFF746FF0299EDB2495D814235
:200BC00001D0052002E0012000E0002005B0F0BDF2B584B00500022000F0D7FC012000F0E4
:200BE000D4FC9848407E002805D10021280000F048F900240CE0012805D10121280000F0C6
:020000040800F2
:200C000040F9012404E00221280000F03AF90224A806860FAC2701AD0498807A002802D0AA
:200C2000F320287000E02F7000F0A4FD2200310001A800F031F90028F8D00498807A002835
:200C400002D09820287000E02F7000F093FD2200310001A800F020F90028F8D00498477A21
:200C60002F7000F087FD2200310001A800F014F90028F8D0F843287000F07CFD22003100E9
:200C800001A800F009F90028F8D0049800902000032101F037FC009840180079287000F044
:200CA00069FD0498807A002814D0287800F0FEFC010A6970287022003100681C00F0ECF87B
:200CC0000028F8D02200310001A800F0E5F8002807D1F7E72200310001A800F0DDF8002894
:200CE000F8D0049800680090781EC0B20290002707E02200310001A800F0CEF80028F8D04E
:200D00007F1CFFB20298874220DA009800780099491C0091287000F02DFD0498807A00281B
:200D2000E7D0287800F0C2FC010A6970287022003100681C00F0B0F80028F8D02200310080
:200D400001A800F0A9F80028DAD1F7E700F012FD2200310001A800F09FF80028F8D000F046
:200D600009FD2200310001A800F096F80028F8D0200000F08BF800203349088001203149B1
:200D8000087600F005FC022000F002FC002005B0F0BDF8B50500012000F0F7FB294C607E4A
:200DA0000126002805D10021280000F06AF800200CE0012805D10121280000F062F80120B3
:200DC00004E00221280000F05CF80220A077A806870FAC206D4628706870A87000F0CAFC66
:200DE000A27F3900684600F057F80028F8D0F02028706870A87000F0BDFCA27F3900684673
:200E000000F04AF80028F8D00F2028706870A87000F0B0FCA27F3900684600F03DF8002808
:200E2000F8D000F0A7FCA27F3900684600F034F80028F8D0A07F00F029F82676012000F066
:200E4000A7FBF1BD140500203A0A002080B501209A4908714871887100200880887025215B
:200E6000974801F0C7FB01BD944A002901D110717047012901D150717047022900D19071A0
:200E8000704780B50020FFF7EFFF01BD80B501000120FFF7E9FF01BD7EB587B0007803903C
:200EA000864808A909784018049004786846007F02908025002000216A46127F002A1CD1CD
:200EC0006A4603C20026684603C8000C0A041043090C6A4603C20398A1198022CA400240C4
:200EE00007D068460CC800209C49801859416A4603C2761C042E46DAE5E7029A012A1AD18B
:200F00006A4603C20026684603C8080000216A4603C20398A1198022CA40024007D0684657
:200F20000CC800200021C94380186A4603C2761C022E28DAE7E7022A08D1039AE5401540D5
:200F400001D0C04301466A4603C21CE06A4603C20026684603C8000A0A061043090A6A46C1
:200F600003C20398A1198022CA40024008D068460CC80020FF210906801859416A4603C219
:200F8000761C082EE5DB08A80278684603C800F01CF8002815D06946097F002901D1241DA2
:200FA00009E00299012901D1A41C04E0022901D1641C00E00834E4B2082C01DB002400E0CA
:200FC000002004990C700AB070BD30B53B4B9C6B0125002A03D0022A11D008D319E0E20990
:200FE000154016D0802294439C6320330EE0220A15400ED0A74A22409A63283306E0620AA1
:020000040800F2
:20100000154006D0A44A22409A63303303C3012030BD002030BD70B500E070B504000800DE
:2010200000250026032101F06DFAC9B29B4AC80010180379082B07DB012672B689005118C7
:20104000097E057162B62170300070BD70B50400080000250026032101F054FAC9B28F4A5A
:20106000C80010184379042B0DE070B50400080000250026032101F045FAC9B2104AC8003B
:2010800010184379082B07DB012672B689005118497E457162B62170300070BD70B504006A
:2010A000080000250026032101F02CFAC9B27B4AC80010188379022B12E00000A00900208E
:2010C000DC09002070B50400080000250026032101F018FAC9B2714AC80010188379082B13
:2010E00007DB012672B689005118897E857162B62170300070BD70B504000800002500264E
:20110000032101F0FFF9C9B2644AC8001018C379002B07D0012672B689005118C97EC571AD
:2011200062B62170300070BD70B50400080000250026032101F0E6F9C9B2584AC80010182C
:20114000C379082B07DB012672B689005118C97EC57162B62170300070BD00000000FFFF7C
:20116000F1B5984C68460188200001F006FB00283AD168460188200001F0FFFA002833D1FC
:201180000121C943904A1068084010608F48846B0823234301248E4D566A8E4FBE4202D34E
:2011A00026052E6003E02D682D0D254000D0836311610021516211680C431460816B0A072A
:2011C000D30F01225A406B461B888024E400A34206D06400A34208D06400A34207D0F1BDEA
:2011E0004281082291438163F1BD8281F9E7C281F7E710B5754C6089FA218900884201DAE0
:20120000401C6081A089884201DA401CA081E089884201DA401CE081227A608903210F289B
:2012200001DA401E06E0A0890F2803DBE0890F2804DA401C01F066F90A0004E0521CD2B247
:20124000032A00DB00222272207A01F00CFB00F001F810BD10B55D4C0020607201F0F9FB43
:2012600001F056FC01F0B3FC207A002803D0022805D002D305E0207902E0607900E0A079F0
:20128000E071E079012802D101F028FB10BD01F029FB10BDFFFEFFFFFFFDFFFFDC090020EB
:2012A000F8B54A4C0225ED430126607A00281FD1E07900281CD1207A002802D12000203008
:2012C00006E0012802D12000283001E02000303003C82200183203C2A26B2000183003C817
:2012E000304002D02A40A26302E002201043A063E079012815D17103324801F03EFA00283C
:2013000007D02000103003C806430F0020001030C0C02000103003C8001849412200103262
:2013200023E0A26BB2432000183003C830401043A0638107CA0FC307DB0F9A420CD0304072
:2013400002D001F08EFB01E001F0A0FBA06B0540064070002843A0632000183003C84008E5
:20136000CA07104349082200183203C2607A401C6072C0B2402824DB0020607201F0A4FA65
:20138000227AE079012804D1103403CC00F024F8F1BD002A04D101F05CFBA06B80210EE0AC
:2013A000012A05D101F055FBA06B8021490006E0022A06D101F04DFBA06B8021890001435B
:2013C000A163F1BD0004004800400140A009002000E200E0711700007FB584B004A803C89C
:2013E0004FA20CCA42404B40002108200090002400204900082680252D061D4000D0401C24
:020000040800F2
:2014000092185B41761EF6D1C0B2052800DA491C0098401E0090EBD16846007E3F4A8300D3
:20142000D31802931976C00010180190007908300199087104A803C80022D24313464240D7
:201440004B4000210420009000204900102680252D061D4000D0401C92185B41761EF6D18B
:20146000C0B2092800DA491C0098401E0090EBD10298407E00010143029841760198407908
:20148000001D0199487104A803C80022D243134642404B4000210220009000204900202646
:2014A00080252D061D4000D0401C92185B41761EF6D1C0B2112800DA491C0098401E0090BA
:2014C000EBD10298807E800001430298817601988079801C0199887104A803C80022D243F4
:2014E000134642404B40402580210906194000D0761C92185B416D1EF6D1F6B2212E00DA4D
:2015000001240298C07E400004430298C4760198C079401C0199C87108B070BDDC09002088
:20152000FFFFFFFFFFFFFFFF30B585B0010080239B02424A00280ED001290CD002290AD0BB
:201540005801032901D0042903D113681843106004E0052902D11068034313603EA04A00B0
:20156000855A0095012001900020029003903448890044186946206801F03EF800222900F6
:20158000206801F000F905B030BD80B5012201E080B5002230A14300C95A294B800018580C
:2015A00001F0F1F801BD000070B586B00C00010080239B02214A00280BD110681843106039
:2015C00010680343136050688023DB01034353600AE0012908D110681843106010681843A7
:2015E00010609068034393604D0000BF16A0405B00901220019000200390029014A0405B06
:2016000004901048890046186946B06800F0F4FF0EA0405B0090022001900120029000BF4F
:201620000CA0405B04906946306900F0E5FF30682060200001F010FD06B070BD1410024034
:20164000680500205005002000020400000408000100010001000100200002000008000840
:20166000400080000121F02202400120104302094309D2188309D2180A4002D002000820C3
:20168000104302094309D218C309D2180A4002D002000420104302098309D218C309D21834
:2016A000114002D0010002200843704738B50500FFF7D8FF04022801C0B2FFF7D3FF0100B9
:2016C0002000084332BD30B5C2098109040963189B1845085B1945096419A21885085219FD
:2016E00001256118C4080919294011D02A4007D01D4002D00100102018E00100202015E044
:201700001D4002D00100402010E0010008200DE02A4007D01D4002D00100802006E001003B
:20172000042003E01D4002D001000220484030BD38B50400000AFFF7C6FFF0250540E0B239
:20174000FFF7C1FF0009284332BD30B4012100220368001D002B0BD00468001D0C4202D011
:201760004D466D1E64192260241D1B1FF0D0FAE730BC704780B5A94801F09AFF01BD38B532
:20178000FFF764FBA64C0720607221003431216091212171A1226271B123A371A14D687278
:2017A0008A2040002018286029716A71AB719E4800218174FF220C2100F0FEFE2020205CFC
:2017C000FE2101402034217031BD98480178CA070FD5FE220A400270817A062909D1C17AAD
:2017E000932906D18E4982780A74C07848740120704700207047F8B5894C8C4EB07A0C30A2
:020000040800F2
:2018000060720020617E002900D08020E17E002902D0010040200843010011312171010082
:20182000213161713130A0712068A17C0170E17C4170A17D8170C01CE17D017025682D1D5D
:2018400001219020C00500F098FF0028207EA17E04D0890001431020084301E089004018A7
:2018600028706D1C607A28706D1C627AF168280001F04AFF607A2D1820682E1A6F1CF1B298
:20188000FFF7E0F82870607A21790907C90E891D40186072761CF1B2206801F063FF3870FF
:2018A000607B002807D12100607EA27E12018018C0B2FFF78DF95E4800683230E08501209F
:2018C000E077F1BDF8B506000D0032791007000FC02111400F284DDA3268514C9378277CFD
:2018E000BB4247D1D278637C9A4243D10818113028710100103169712030A871306800782B
:20190000296808703068407829684870707A071FFFB23A003168891C2868001D01F0B2FF9D
:201920003F1DFFB20097207D29688870607D2968C87028680099C9B247180099C9B2FFF72A
:2019400081F838700099491CC9B2286801F00AFF7870707A801C68722900607EA27E1201E1
:201960008018C0B2FFF734F9314800683230E0850120E077F1BDF8B505000E002A791007F2
:20198000000FC02111402A68254C1379277CBB4242D15379677CBB423ED193782375D2781C
:2019A000627508180F3030710100103171712030B0712868007831680870286840783168C1
:2019C0004870687A871FFFB23A002968091D3068801C01F057FFBF1CFFB200973068009956
:2019E0004718FFF72FF838700099491CC9B2306801F0B8FE7870687A801E70723100607EB2
:201A0000A27E12018018C0B2FFF7E2F8084800683230E0850120E077F1BD00008C0900205F
:201A20009402002034050020040A0020000000204C0A0020F0B585B003A851490CC90CC013
:201A4000504C2079C02101406A461170694609784A06D20FE27669460978C9096176000765
:201A6000000F494EB073256840002818807869468870677A68468078800709D5022020764D
:201A80003900206801F06EFEE95D814202D02CE300202076684680780007800FA076B07B0B
:201AA00041000191E17900290AD16946897801220A4369468A7089782268019BD21891701A
:201AC0002168019A8918C9786A46517069468978C0220A40C02A0AD169464978202906D15E
:201AE000A17FFE220A40A2770021A1732173A17AB172022809DB68468078000600D4F0E2DC
:201B000021002000FFF737FFEFE225682878A0746878E074A878A075E878E0751B4F684610
:201B20008078C0210140802934D101996D182D1D0622691C3000143001F0A4FE0622B91CC3
:201B40003000143001F0B1FE002807D0062203A93000143001F0A9FE002810D10020FFF773
:201B600014FD0220FFF711FD1420A0852068B17B49004018C2782900054801F0A1FAB4E2AE
:201B8000FC4C0008940200203405002000000020AC08002068468078C0210140C02900D071
:201BA0004BE201996818C1786A465170A17F5278102A71D1CA076FD40020FFF7E6FCB07B97
:201BC000400021680918962252008B7A32256B439B189BB2934200DA13003382328AFA23B7
:201BE0009B00D218A284C97A002900D10121217721680818007B307300207073A07FFC213D
:020000040800F2
:201C00000140A17768460078113020716846007821306071684600783130A0710120B0734F
:201C200021680422080001F06FFD2068B17B49004518207EA17E8900014340200843A870E9
:201C40000120E8702D1D0622B91C280001F05CFDAD1D0C22B449280001F056FD0C35206828
:201C6000291AC9B2FEF7EEFE28706D1C2068291A491C6172491EC9B201F074FD2870607FE6
:201C80000221014361770020A0730120607300202073A08C208528E26A465278202A07D1B4
:201CA0000020FFF772FCA07FFC210140A177B6E16A465278AA2A6ED1C9076CD40020FFF7C1
:201CC00064FC0020A0730622B91C2068B37B5B00C018001D01F0E9FD0028DCD1A17F012081
:201CE0000843A077617BCA0702D50A00FE2111408A0705D50A00FD21114002220243A2771E
:201D000061730020608568460078113020716846007821306071684600783130A0710120F1
:201D2000B07320680422010001F0EEFC2068B17B49004518207EA17E890001434020084367
:201D4000A8705520E8702D1D0622B91C280001F0DBFCAD1D0C227449280001F0D5FC0C3587
:201D60002068291AC9B2FEF76DFE28706D1C2068291A491C6172491EC9B201F0F3FC28703F
:201D800001219020C00500F0F8FC00282AD020342078400722E001996B1869464978A0291B
:201DA00028D10622B91C181D01F07FFD002818D1FFF7EBFB607B410702D5FB210140617373
:201DC000A07F03210143A17701219020C00500F0D4FC002806D020342078800701D500F0D6
:201DE0004EFA82E1607EA17E09014018C0B2FEF7D0FF7AE169464978302936D10622B91C7B
:201E0000001D01F052FD0028F3D1FFF7BEFB684600781130207168460078213060716846DC
:201E200000783130A0710120B07320680422010001F06AFC2068B17B49004518207EA17E57
:201E40008900014340200843A8703120E8702D1D0622B91C280001F057FCAD1D0C22324923
:201E6000280001F051FC0C3545E06946497840295CD10622B91C001D01F017FD0028B8D1C0
:201E8000FFF783FB68460078113020716846007821306071684600783130A0710120B073B2
:201EA00020680422010001F02FFC2068B17B49004518207EA17E8900014340200843A870B0
:201EC0004120E8702D1D0622B91C280001F01CFCAD1D0C221449280001F016FC0C350A22E4
:201EE00083A1280001F010FC0A350F2283A1280001F00AFC0F352068291AC9B2FEF7A2FDC8
:201F000028706D1C2068291A491C6172491EC9B201F028FC28702100607EA27E1201801844
:201F2000C0B2FEF755FEE0E0040A00206846407850283AD10020FFF728FBB07B400028182C
:201F4000817A2022A25CCB0702D50223134301E0FD2313402022A354A25C8B0702D5042307
:201F6000134301E0FB2313402022A354A25C4B0702D50123134301E0FE2313402022A35451
:201F8000A25C090602D50821114301E0F72111402022A154A15CC07A002802D001200843C2
:201FA00001E0FE200840A05439E068464078512839D10622B91C181D01F077FC002831D124
:201FC000FFF7E3FAB07B40002818807A2021615CC20702D502220A4301E0FD220A402021EF
:201FE0006254615C820702D504220A4301E0FB220A4020216254615C420702D501220A430F
:020000040800F2
:2020000001E0FE220A4020216254615C000602D50820084301E0F72008402021605400201C
:20202000A073207361E06846407860285DD10020FFF7ABFA01F072FCFEE7A448817C49006C
:202040004118062268468078C0230340402B1CD19E4B2846019D4019057946793602AD1952
:202060006E4635811D886E463689B54239D09B1C521EF7D1007908709448817C4900401884
:202080002168019A8918497920E068468078C02318422AD18D4B2846019D401945798679E1
:2020A0003602AD196E4635811D886E463689B54217D09B1C521EF7D1407908708348817CDA
:2020C000490040182168019A8918897941707F48807C401C7D498874C0B2062801DB00206A
:2020E000887421002000FFF7EDFB05B0F0BD000054585A5831332D44582D000056342E30C3
:20210000332D31353038313372660000F8B500226F4C607E002800D080224027E07E002866
:2021200000D03A431000113020711100213161713132A2712568A37C2B70E37C6B70A37D24
:20214000AB70ED1CE37D2B70637B624E9D072ED020716171A27121680422080001F0D4FA44
:202160002568207EA17E890001430F432F7101206871AD1D0622B11C280001F0C5FAAD1DFB
:202180000C225249280001F0BFFA0C352068291AC9B2FEF757FC28706D1C2068291A491C84
:2021A0006172491EC9B201F0DDFA2870F1BD5B0740D53389637220716171A2712068A17C39
:2021C0000170E17C4170A17D8170C01CE17D017025682D1D01219020C00500F0CEFA002878
:2021E000207EA17E04D0890001431020084301E08900401828706D1C607A28706D1C627A4C
:20220000F168280001F080FA607A2D1820682E1A6F1CF1B2FEF716FC2870607A2179090792
:20222000C90E891D40186072761CF1B2206801F099FA3870F1BD38B59F4C206B401C20631E
:20224000607B00281AD0208D002817D1A08C2085A07B0125217F88420CD2401CA07301F01A
:2022600085FBC005C00DE084FFF750FF607F0543657731BD25730020A073607331BD70B501
:202280008E4CE56868262E706D1C0622A11C280001F03AFAAE711120E87104202872342075
:2022A00068724820A8723320E8723720FFE728730D350E21E068FEF7C5FB28701620687029
:2022C0001022E1687E4800F0FBFE70BD040A00209402002000000020F8B50020FFF755F992
:2022E0000120FFF752F996267600754F724C754D206B401C20630C2229000831380000F0E4
:20230000DFFE714801F0D4F9300001F0BDFB6E4801F0CEF9300001F0B7FB6B4801F0C8F9EA
:20232000300001F0B1FBFFF750FA0028E0D00020FFF72EF90120FFF72BF90026012768E0AA
:202340000021EE70A9702020205C38421DD0A878062100F0D7F8002817D0E8780A21484397
:202360000090206B052100F0D0F800984018A97888420AD2AE70042060732777FFF77FFF86
:20238000E878142801DA401CE870608D401C608580B24E49884201DB6685A6774748007866
:2023A000C10705D5FE21014044480170FFF723FAFFF741FF2000FEF751FB6946087068469F
:2023C0000078002800D0E67768460078012820D1282001F059FB206B401C20633C49096803
:2023E000401820633549498840182063FFF722FB607F002808D0206B01F056FB01F0B6FA78
:020000040800F2
:20240000812189000140E1842878002801D168460670206B401C20632B4801F049F92D48A8
:20242000006869460880A08D002802D0401EA08502E00220FFF7ACF8684600880028ADD0DA
:2024400024480660206B6946098840182063218A40182063E08C69460988884203D3694683
:202460000988401A00E00020E084208D69460988884203D369460988401A00E00020208541
:20248000A888694609884018A88080B2FA218900884283DB401AA8806878401C6870012196
:2024A0009020C00500F069F9A978002800D147E7FA2900DA491C45E79402002000000020A9
:2024C000AC080020800500208C090020E12E0000244001404C0A0020F446002804D44942DF
:2024E00000F013F8404260474042002905D45FD000F00BF8404249426047494200F005F8E6
:202500004942604703460B43E6D40022030A8B420BD203098B4219D243088B422ED2411A28
:2025200000D20146524110467047FF2209023FD012068B4205D3121209028B4201D31212F6
:20254000090203098B4219D300E0090AC3098B4201D3CB01C01A524183098B4201D38B0159
:20256000C01A524143098B4201D34B01C01A524103098B4201D30B01C01A5241C3088B428A
:2025800001D3CB00C01A524183088B4201D38B00C01A524143088B4201D34B00C01A524167
:2025A000884200D3401A5241CFD201461046704708B501F089FA08BD1206130A1A43130CF5
:2025C0001A4300BF130030B414001500103902D310393CC0FCD2490700D30CC000D504C006
:2025E000890002D30280801C002900D5027030BC704700000022E5E7FFB5002401232FE053
:202600000525B5403D43029E3560674D2E68019FFD432E404F68FF0302D53700019E3E4367
:20262000614F3E607E682E404F68BF0302D53700019E3E435C4F7E60BE682E404F68FF027C
:2026400002D53700019E3E43574FBE60FE6835404E68B60202D52E00019D3543FD60641C47
:202660000D682E00E64000D186E00126A6402E400196019D002DF2D04D68022D01D0122DC7
:2026800018D1E508AD0045192E6A03966607F60E6F463E70039FBC466E4637780F26BE401A
:2026A0006746B743BC460F696E463678B740664637432F62066865006F463D7003276D46D7
:2026C0002D78AF40FD432E40B4460E79B707BF0F6E463678B7406646374307604E68012EE0
:2026E00005D0022E03D0112E01D0122E13D186682E40B446CF686E463678B74066463743C2
:20270000876047680126A640B7434E6836091E40A6403E434660C66835408E686F463F78B7
:20272000BE402E43C6604D68ED0098D51F4D2D681D431E4E35601E4DA608B600AD19029567
:202740002F68A5072E0F0F25B540AF439025ED05A84201D1002554E7164DA84201D10125D6
:202760004FE7154DA84201D102254AE7134DA84200D045E7032544E7FFBD0069084000D0D7
:202780000120C0B27047002A00D10904816170470B4A1368034000D1704780B5106000F01E
:2027A0005EF801BD000000000004014018100240080001400004004800080048000C00481D
:2027C000140401400121C006C00E81405A480160704730B585B0574801688022D2020A438A
:2027E0000260002501950295E02000020090534C69462000FFF700FF01200190C02000029C
:020000040800F2
:202800000090039569462000FFF7F6FE012291032000FFF7B8FF0022802109022000FFF76F
:20282000B2FF05B030BD00B585B0424801688022D2020A43026064480190012002908002D1
:20284000009069463D48FFF7D7FE00220021072001F059F8072001F05AF805B000BD80B52C
:20286000FEF77EFC01BD38B580252D02334C690800280BD0012801D1002202E0022805D178
:2028800001222000FFF77FFF012204E001222000FFF779FF002229002000FFF774FF31BD07
:2028A00010B57948016810220A430260784C206820609848E0620020A062002201211120C3
:2028C00001F021F8112025E010B50120C043704C2168014021602061112025E06C4800213C
:2028E000416234E16A488C49416230E110B569480168802252020A430260674C20682060A6
:202900008248E0621720A06200220021142000F0FAFF142000F0FBFF0120E1680143E16005
:2029200021680843206010BDFFF74CFF0020606210BD00001410024080E200E00004004892
:2029400070B576488168820D0A4382600168802292020A430260724C3C2120001430FFF72A
:2029600049FE1C2120005030FFF744FE022060600025A560E5600426266110202060210028
:202980009020C005FFF738FEA720E06691496161A56120626562E5612000143001F0A2F869
:2029A00060202065A5652666E06E400860650022210050312000143001F0E6F800211434C1
:2029C000200001F09DF870BD0000211038B553488021890242680A43426002681143016087
:2029E0004F4C3C2120001430FFF704FE1C2120005030FFF7FFFD022060600025A560E56063
:202A0000052020614020206021009020C005FFF7F3FD71486061A561FF2026302062656276
:202A2000E5612000143001F05DF860202065A5650420206692206065002221005031200092
:202A4000143001F0A1F800211434200001F058F831BD6148016801229143016000214162C2
:202A600070475D48416A89B2026801239A430260892902D3932900D293214162FF21243166
:202A8000C162922162E000001C100240524849E000100040181002400040014038B51F485E
:202AA00041688022D2020A4342600168802292020A4302601A4C3C2120001430FFF79AFD06
:202AC0001C2120005030FFF795FD022060600025A560E560052020618020206021009020A9
:202AE000C005FFF789FD7D486061A5618520400020626562E5612000143000F0F3FF6020CF
:202B00002065A56504202066852094E70A1A000072489FE7660800005C08000014100240C0
:202B20001C090020416A89B2026801239A430260FF221032914201D3511E04E0922902D2B1
:202B4000882900D387214162C26288214163016801220A430260704738B56148022581689D
:202B60002943816001686A040A4302605D4C3C2120001430FFF73EFD1C2120005030FFF714
:202B800039FD65600025A560E56001202061206021007B48FFF730FD7A486061A561F02009
:202BA00020626562E5612000143000F09BFF60202065A56504202066782060650822210037
:202BC00050312000143000F0DFFF08213CE76D4840E700000020004000440140F8B56A4CD2
:202BE0006A48606296208001A06280204001E0620026266380086063E6630C27A763210064
:020000040800F2
:202C000024310020FEF7D0FC002204211B2000F07AFE1B2000F07BFE5D4D5E482860962062
:202C20000001686080204001A860EE6080082861AE616F6129000120FEF7B6FC002204216C
:202C40001C2000F060FE1C2000F061FECA2040002018A549C86020009430E060012221007F
:202C60001C312000243000F05BFA012220342100280000F055FAF1BD38B500680024424D99
:202C80004249884206D1687D01280CD100F034F96C7531BD3F49884205D1E87D012802D1A8
:202CA00000F07AF8EC7531BD006837490122374B984201D10A757047364B984200D18A75C9
:202CC0007047006830490122304B984201D14A757047304B984200D1CA75704700480140F7
:202CE000141002401C090020F1B50020FEF74DFC0120FEF74AFC0220FEF747FC0127224CD9
:202D00007A4D0026009800682049884219D12868B903014329602868754901402960210057
:202D200024310020FEF740FC14216F48FFF762FC27756675012221001C312000243000F041
:202D4000EFF9009800681349884218D1686879040143696068686749014069600C4D290016
:202D60000120FEF721FC14212000FFF743FCA775E675012220342100280000F0D1F9F1BDF7
:202D800000040048000400400000002000380140AC08002000440040F8B5A9492020085C6F
:202DA0000A7ECB689B180093030001240225CE7C072E00D98BE002A7BF5D7F00BF4400BFFA
:202DC000040E27494F65737A672B01D0682B04D1CC744870CA68107001227BE04B78672B88
:202DE0000BD10881009B1870521CCD74C868002870D108009430C8606CE08B185870CB6825
:202E00009854521CD2B2072A64DBCD7462E04D78672D17D10E89B24202D2009D2870521C9E
:202E2000D0B20D89A84255D3C868162B08D14A7802700889CA6850700C700020C87444E06B
:202E4000FE22F5E7682BF8D1009B1870521C03202EE0C872009B1870521C042028E0002839
:202E600007D10620C87400208872009B1870521C30E0E02B03DBE02088720D7003E0887220
:202E8000009B1870521C052012E08B7A0A339A4202DA009B1870521CD2B2887A0A3082427B
:202EA00018DB062004E04874CB689854521C0720C8740FE0162B08D10C700023CB74087406
:202EC000CB689854521CD2B20A81002202E00022CA740A700A7605208874012220315948C2
:202EE00000F01EF9F1BD0000180A00200C100240FFBFFFFFFFFFFDFFF8B55148007F504969
:202F00004A7E0300012402254F49CE7C072E00D988E002A7BF5D7F00BF4400BF040E2446C0
:202F20004C627077672B01D0682B04D1CC744870CA681070012278E0CB689B184C78672CCF
:202F400009D108811870521CCD74C86800286CD13E48C86069E01870521CD2B2072A64DB61
:202F6000CD7462E04D78672D17D10E89B24202D2CD68A854521CD0B20D89A84255D3C86835
:202F8000162B08D14A7802700889CA6850700C700020C87444E0FE22F5E7682BF8D1CB68D9
:202FA0009854521C03202EE0C872CB689854521C042028E0002807D10620C8740020887217
:202FC000CB689854521C30E0E02B03DBE02088720D7003E08872CB689854521C052012E073
:202FE0008B7A0A339A4202DACB689854521CD2B2887A0A30824218DB062004E04874CB68DA
:020000040800F2
:203000009854521C0720C8740FE0162B08D10C700023CB740874CB689854521CD2B20A81F4
:20302000002202E00022CA740A70054842760520887401220649074800F072F8F1BD0000C3
:2030400000000020AC080020180A0020940100201C0000202400002010B5040013D06920D0
:20306000205C002802D1200000F027F802206921605420680168012291430160200000F0F1
:203080008DF9012801D1012010BD606A002802D0200000F005FA20684168084A0A4042607F
:2030A00081682A2291438160FFE7016801220A430260200000F0F3F810BD7047FFB7FFFFD2
:2030C00050B56923C35C012B01D0222B26D1002901D0002A01D1012050BD6824045D012CC1
:2030E0001CD0012468268455C16450214252522142520021C166222B01D1322200E0122258
:203100006923C254026893681C43946081550068016880220A430260002050BD022050BD01
:2031200070B56923C45C012C01D0122C3DD1002901D0002A01D1012070BD6823C35C012B5A
:2031400033D00123682683554165582142525A2142528268FF211D03AA4204D10269002AA0
:2031600007D1134905E0002A05D10269002A00D07F215C2281520021C166122C01D1322234
:2031800000E0222269240255026814681D02254315600268946823439360815500680168DF
:2031A00020220A430260002070BD022070BD0000FF0100006921415C122901D032292BD1F8
:2031C0005221415A002909D100680168802291430160016840220A4302601BE08168802236
:2031E000520191420BD10169002908D1C16C0A88D205D20D03681A85891CC16405E0C16C06
:203200004A1CC2640978026811855221415A491E52300180002070470220704710B55C2137
:20322000415A6922825C222A01D0322A35D1426D836880246401A34208D10369002B05D13D
:2032400003689B8C19401180921C04E003689B8C19401170521C42655A21415A491E5A22E6
:203260008152090417D101680A6820239A430A606922825C322A01D1122108E00A68864B2C
:2032800013400B608A6801239A438A60012169228154FFF716FD002010BD022010BD70B507
:2032A00004000025E5667D4E20680068000708D53300002280218903200000F018F8002831
:2032C0000CD12068006840070AD5330000228021C903200000F00BF8002801D0032070BDDD
:2032E00001206921605468342570002070BDFFB581B000F0C6FB00900127FF43664C20256A
:20330000ED4300266846007B002816D101980068C06902990140029881423CD004980021F3
:20332000C9438842F2D000281DD000F0AAFB0099401A04998142E9D215E001980068C0691E
:20334000029901400298814225D104980021C9438842F2D0002806D000F093FB0099401A7A
:2033600004998142E9D201980068016880229143016001680D40056001680C4004608168D4
:203380000F4087600120019969310870019868300670032000E0002005B0F0BDF8B504004D
:2033A000102200200025266831686F4F0F40A168394327690F4361693943E7690F4337607C
:2033C00077686A493940E7680F437760B76868493940A7690F43216A3943B16065498E4229
:2033E0000FD1654909688907890F0DD0022906D003D3032909D1022207E0042205E00822AC
:020000040800F2
:2034000003E05E498E4200D1002280210902E7698F421FD1002A06D0022A07D0042A07D09A
:20342000082A09D00DE000F057FD03E0544804E000F0C6FF400000E048006168FFF765F8B4
:2034400000E001254F4901400004400C4007400F084313E0002A06D0022A07D0042A07D061
:20346000082A0ED014E000F037FD03E0464809E000F0A6FF6168FFF748F880B22168C86053
:2034800007E008006168FFF740F880B2F06000E001252800F2BD0000FFFEFFFFFFFFFF01EE
:2034A0002421415CC90706D501684A68374B1340826A1A434A602421415C890706D50168E6
:2034C0004A68334B1340C26A1A434A602421415C490706D501684A682E4B1340026B1A4378
:2034E0004A602421415C090706D501684A682A4B1340426B1A434A602421415CC90606D532
:2035000001688A68254B1340826B1A438A602421415C890606D501688A68214B1340C26BC6
:203520001A438A602421415C490611D501684A681C4B1340026C1A434A60026C80235B0374
:203540009A4205D14A68184B1340426C1A434A602421415C090606D501684A68134B134004
:20356000806C184348607047F369FFFFFFCFFFFFFFF4FFFF0038014030100240004400400F
:203580000024F400F0FF000000127A00FFFFFDFFFFFFFEFFFFFFFBFFFF7FFFFFFFEFFFFF43
:2035A000FFDFFFFFFFFFEFFFFFFF9FFFFFFFF7FFF8B504000BD0206802260125C1682940BF
:2035C00007D0C168314004D0C068400701D50120F2BD607C002802D1200000F032F86674A6
:2035E0002D4821680860206841680722914362680A4342602068294E81683140A2680A43CE
:203600008260F043E168814203D121680969814214D000F036FA07002068C168002908D03A
:2036200000F02FFAC01B1E498842F5D303206074F2BD01690E40E168314301616574002027
:20364000F2BD7047F8B50400207C012801D10220F2BD0125257402266674E06811498842BE
:2036600002D111482168086010482168086000F008FA07002068C16829400CD0C16831405B
:2036800009D0C068400706D500F0FBF9C01B04498842EFD331E02CE05555000000F0FFFFBA
:2036A000E9030000FF0F0000AAAA0000CCCC0000F8B50400207C012801D10220F2BD0125E5
:2036C00025740226667400F0DCF907002068C168314009D000F0D5F9C01B02498842F5D312
:2036E0000BE000BFE9030000004901E0AAAA00000160657400202074F2BD03206074002002
:2037000020740320F2BDFEE7124207D08B0706D00B78491C0370401C521EF7D87047830794
:2037200006D00B78491C0370401C521EF9D1704770B4103A03D378C9103A78C0FBD25307DD
:2037400001D318C918C001D508C908C0D20704D30B880380891C801C002A01D50B78037070
:2037600070BC704710B5002206A303E004785440401C1A5D0C00611E2406F7D1D043C0B20E
:2037800010BD000000070E091C1B1215383F363124232A2D70777E796C6B6265484F4641CA
:2037A00054535A5DE0E7EEE9FCFBF2F5D8DFD6D1C4C3CACD90979E998C8B8285A8AFA6A199
:2037C000B4B3BABDC7C0C9CEDBDCD5D2FFF8F1F6E3E4EDEAB7B0B9BEABACA5A28F88818679
:2037E00093949D9A2720292E3B3C35321F18111603040D0A5750595E4B4C45426F68616659
:020000040800F2
:2038000073747D7A898E878095929B9CB1B6BFB8ADAAA3A4F9FEF7F0E5E2EBECC1C6CFC838
:20382000DDDAD3D4696E676075727B7C51565F584D4A4344191E171005020B0C21262F2818
:203840003D3A33344E49404752555C5B7671787F6A6D64633E39303722252C2B0601080FF8
:203860001A1D1413AEA9A0A7B2B5BCBB9691989F8A8D8483DED9D0D7C2C5CCCBE6E1E8EFD8
:20388000FAFDF4F312420FD0814202D25318984203D310B5FFF738FF08BD80185B1E19780C
:2038A000401E0170521EF9D1704710B402E0401C491C521E002A09D00B7804789C42F6D0CB
:2038C00002D20020C04302E0012000E0002010BC7047FEE710B58207D30EFF249C40E24333
:2038E0008907090E9940030004D51A481B071B0F083B00E018489B089B00C01803681A4060
:203900001143016010BD80B5FFF7E4FF01BD0121C006C00E8140114801607047BFF34F8FE1
:203920000F4810490860BFF34F8FFEE710B5401E80214904884201D3012010BD0A4C606047
:2039400003210020C043FFF7C5FF0020A0600721216010BD1CED00E000E400E000E100E062
:203960000400FA050CED00E010E000E0F8B52F4E300000F0C9FD0090301D00F0C5FD0400F8
:203980003000083000F0C0FD05000C36300000F0BBFD2749274A009B1B78002B36D1236827
:2039A00053435B18236053435B18236053435B18236053435B18236053435B1823605343B5
:2039C0005B18236053435B18236053435B18236003000826276857437F1827601F60276853
:2039E00057437F1827605F60276857437F1827609F60276857437F182760DF601033761EAD
:203A0000E8D1C36F2B600123009E337023685343591821602978C906490E401801682960A7
:203A200021680160286880008008F2BD880400205FF36E3C0D66190080B5194801681022F0
:203A40000A430260032000F005F800F002F8002002BD704710B5040000F030FAFA218900A0
:203A6000FEF753FDFFF762FF002221000020C043FFF749FF002010BD0A480168491C016098
:203A8000704708480068704711B581B0FFF7F9FF0400FFF7F6FF001B01998842F9D313BD11
:203AA00000200240500A002010B50400044800F02BFD00210170034800F026FD046010BDDC
:203AC000880400208C0400207047FEE7022039216054211D206800F0C3F80120393420702F
:203AE000002010BD10B5040001D1012010BD3920205C002802D1200000F001F8E6E77047F3
:203B000010B504001AE00400080006D0042908D008290AD00C290CD010E02068C268022318
:203B20000AE02068C268042306E02068C268082302E02068C26810231343C3600122206814
:203B400000F0B0F920680C49884208D00B49884205D00B49884202D00A49884204D1416CCB
:203B6000802212020A434264016801220A430260002010BD00000000002C01400040014086
:203B80000044014000480140F8B504000D003820205C012801D10220F2BD0120382160548B
:203BA0000220392160542D4F8602002A06D0042A16D0082A27D00C2A37D048E0290020687E
:203BC00000F082F82068816908220A43826120688169042291438161206881692A690FE06D
:203BE0002900206800F0AAF8206881690E438661206881690F408761206881692A69120216
:020000040800F2
:203C00000A43826123E02900206800F0CBF82068C16908220A43C2612068C1690422914315
:203C2000C1612068C1692A690FE02900206800F0EBF82068C1690E43C6612068C1690F407F
:203C4000C7612068C1692A6912020A43C261012039216054002038342070F2BDFFFBFFFF81
:203C6000F0B506687D4A7E4B7E4C7F4DA84201D0A04206D17027BE4337004E683E43A842A7
:203C80000BD0A04209D0794CA04206D0984204D0904202D0774CA04203D1754C3440CE68DB
:203CA000264306608C68C4620C688462A84206D0984204D0904202D06E4A904201D10969E1
:203CC000016301214161F0BDF8B5026A01239A430262036A426884697325AC430D68254329
:203CE00000950224A3438C681C435C4B5C4D5E4EB04206D0A84204D0984202D05D4FB842FC
:203D00000CD10827BC432700CC683C430427BC43B04206D0A84204D0984202D0554B9842E8
:203D200005D1554B13404D691D438A692A434260009A8261496841630462F1BD70B5026A2B
:203D400010239A430262026A436884694B4D25400C6824022C432025AA438D682D01154338
:203D6000414A904208D1802295432E00CA68150135434022954308E0394A904205D0374AD8
:203D8000904202D03B4A904206D13D4A1A404B698E691E43B300134343608461496881633E
:203DA000056270BD70B5026A364B13400362046A4268C56973239D430B682B43324D254024
:203DC0008C6824022C43284DA84207D12F4D2540CC6826022E432E4C344008E0204DA84248
:203DE00005D01E4DA84202D0224DA84206D1294D15404A698E69164332012A434260C36163
:203E00004968C163046270BD30B5026A224B13400362036A4268C469184D25400C6824021C
:203E20002C431E4D1D408B681B032B430E4DA84208D00B4DA84205D0084DA84202D00D4D2D
:203E4000A84204D1164D15404A6992012A434260C46149680164036230BD00000044014084
:203E60000040014000040040002C014000200040FFFCFFFF00480140FFFCFFFFFF8CFFFFAC
:203E8000FFF3FFFFFFFEFFFFFFFDFFFFFFF7FFFFFFFBFFFFFFCFFFFFFFEFFFFFFFDFFFFFBD
:203EA000FFBFFFFF10B5036A01248C40A3430362036A8A401A43026210BDFEE780B500F009
:203EC0007FFA00BF0CA10A4A12681206120F895CC8400849086002BD80B5FFF7EFFF00BFB9
:203EE00005A1034A12685205520F895CC84002BD04100240A40500200000000001020304C8
:203F00000102030406070809F8B504009A4D2078C00714D58027BF0268680C2101400429C6
:203F200007D068680C21014008293CD16868C00339D52868074002D06068012814D10227E5
:203F40002068384019D068680C21014007D068680C210140082954D16868C00351D4286887
:203F6000384003D0E068012800D04FE12868F82188432169C900014329602078000771D50C
:203F8000206A0028686A5ED0012101436962FFF778FD0600686A384064D1FFF772FD801B4E
:203FA0006528F7D330E10020A870FFF76AFD06002868384006D0FFF764FD801B9549884286
:203FC000F6D321E16068A870606800280CD0FFF758FD060028683840B1D1FFF752FD801BAF
:203FE0008C498842F6D30FE1FFF74BFD060028683840A4D0FFF745FD801B86498842F6D374
:020000040800F2
:2040000002E1E068002828680ED0012101432960FFF737FD060028683840A7D1FFF731FD1C
:20402000801B6528F7D3EFE0012188432860FFF728FD0600286838409FD0FFF722FD801B02
:204040006528F7D3E0E0012188436862FFF719FD0600686A384005D0FFF713FD801B652833
:20406000F7D3D1E0207840074AD5E869F9060143E96169480068A90D014367480160FFF7D0
:2040800000FD060064480068C00505D4FFF7F9FC801B6528F6D3B7E0286A052188432862EB
:2040A000FFF7EFFC0600286A384006D0FFF7E9FC801B58498842F6D3A6E0286A0521884386
:2040C000A16801432962A06801280CD1FFF7D9FC0600286A384013D1FFF7D3FC801B4D4945
:2040E0008842F6D390E0FFF7CCFC0600286A384006D0FFF7C6FC801B46498842F6D383E041
:204100002078C0061DD56069012837D1686B042101436963686B012101436963FFF7B1FCA5
:204120000600686B384005D1FFF7ABFC801B6528F7D369E0686BF8218843A169C9000143B2
:204140006963606A002863D069680C220A40082A5CD03F06A9490228286848D101402960F3
:20416000FFF78FFC06002868384022D0FFF789FC801B6528F7D347E0001002400421C943A7
:204180008842686B02D101406963D3E7042101436963686B012188436863FFF772FC0600BE
:2041A000686B3840CDD0FFF76CFC801B6528F7D32AE0E86A0F218843E16A0143E9626868C6
:2041C0008F490140206B0843A16A014369602868790801432960FFF754FC060028683840A6
:2041E00016D1FFF74EFC801B6528F7D30CE001402960FFF746FC06002868384008D0FFF7DC
:2042000040FC801B6528F7D30320F2BD0120F2BD0020F2BD8913000000700040F2B5040008
:2042200080208004010AA54D02220127FF43A44B1E68F307DB0F009EB34258D2A04B1B684B
:204240001F4033463B439E4E33603368DE07F60F009B9E4217D12368134005D06B68F02605
:20426000B343A6681E436E602378DB0700D499E06368012B02D12868014003E0022B03D1C2
:204280002968084003D18BE028680240FBD068680321884303436B60FFF7F3FB06006068E7
:2042A00001280BD168680C21014004297AD0FFF7E8FB801B83498842F4D362E002280BD12B
:2042C00068680C21014008296CD0FFF7DAFB801B7C498842F4D354E068680C21014061D0D4
:2042E000FFF7CFFB801B77498842F5D349E02368134005D06B68F026B343A6681E436E6019
:204300002378DB073FD56368012B02D12868014003E0022B03D12968084003D140E0286830
:2043200002403DD068680321884303436B60FFF7A8FB0600606801280BD168680C210140B4
:20434000042920D0FFF79DFB801B5E498842F4D317E002280BD168680C210140082912D091
:20436000FFF78FFB801B57498842F4D309E068680C21014007D0FFF784FB801B514988427F
:20438000F5D30320F2BD4E4800680740009838434B4908600868C107C90F0098814201D0F3
:2043A0000120F2BD2078400705D5686846490140E068084368600320FFF74CFB0020F2BD4A
:2043C000424B196842480C220A40082A00D0704730B50F2244A48D0C1540645D9B6AC90396
:2043E00007D500BF44A11A40895CFEF78EF8604330BD20003749484330BD0000FFFFFFFEE0
:020000040800F2
:20440000FFFFC2FFF8B50400334D2068C00340D528688021490501432960304F3868A90D2B
:2044200001433960FFF72DFB06003868C00505D4FFF727FB801B6528F7D323E0284FF8437E
:20444000696801406268104081420BD068686968802252020A436A606968224A0A406A6093
:20446000384068606068A90D88420DD1FFF709FB06006868800707D4FFF703FB801B1149BB
:204480008842F6D30320F2BD686807406068384368602078C00705D5686903218843A16893
:2044A000014369612078800605D5686910218843E168014369610020F2BD000000100240B1
:2044C0000020024089130000FFF8FFFF0410024000127A0000093D001C10024000700040A3
:2044E000FFFCFFFFFFFFFEFF02030405060708090A0B0C0D0E0F101001020304050607080D
:20450000090A0B0C0D0E0F107047FEE7F0B583B00400734800680190206800900646802007
:2045200000030109020A08256E4FBE4201D108260FE01437BE4201D180260AE01437BE4291
:2045400001D1160005E01437BE4201D10E0000E00600019F3E402DD0009E36682E4029D0BF
:20456000009E3668AE43009F3E6026685D4FBE4201D108200DE05C4DAE4201D1802008E0BD
:204580005A4B9E4201D1100003E0594A964200D1080053494860606B012101436163042020
:2045A00021216054002020216054216B080001D0200088474A480068009025688020C00223
:2045C0000109020A474FBD4201D104260FE01437BD4201D140260AE01437BD4201D11600A7
:2045E00005E01437BD4201D10E0000E00600009F3E4027D02E68760724D52E68B60603D47D
:204600002E680427BE432E602568364EB54201D104200DE01436B54201D1402008E0334B86
:204620009D4201D1100003E0314A954200D108002B494860112021216054E16A080001D044
:20464000200088472648006800902568802080020109020A0223234FBD4201D102260FE0C1
:204660001437BD4201D120260AE01437BD4201D1160005E01437BD4201D10E0000E00600C7
:20468000009F3E402BD02E681E4028D02E68B60602D42E689E432E602568124EB54201D133
:2046A00002200DE0104B9D4201D1202008E014339D4201D1100003E00D4A954200D10800C5
:2046C00007494860606B6063012021216054002020216054A16A080001D020008847F7BDA1
:2046E00000000240080002401C0002403000024044000240F0B591B0FFF79EF901250495A6
:20470000059502260D962F040E9700240F942805109004A8FFF7F8FB002800D0FEE707202F
:20472000009001960294039401216846FFF776FD002800D0FEE7FCF7F7FE0120FCF7F4FE21
:204740000220FCF7F1FE0320FCF7EEFEFDF717F8FEF744FAFEF73DF8FEF765F8FEF7F0F8C4
:20476000FEF734F9FEF775F9FEF798F9FEF7D0F9FEF7F2F9FEF72BFAFEF792F8FEF7A4F866
:20478000FEF7B4F804A83421FDF734FF68461021FDF730FF082004900C950D9404A8FFF7AE
:2047A000B3FB002800D0FEE70097680201906846FFF728FE26480168EA030A4302604168F6
:2047C000890003D541682A060A434260214C2248206004206060FF20A0602048E06020008E
:2047E000FEF7E6FE002800D0FEE72000FEF72AFF002800D0FEE7FDF76FFD002011B0F0BDFA
:020000040800F2
:2048000080B5FFF73EF90A21FDF77FFE00291DD113480168491C0160FFF733F96421FDF75E
:2048200074FE002912D10F48817C0022002904D0491E8174090600D1C2740B48817C00299C
:2048400004D0491E8174090600D1C27401BD0000201002408C09002000300040FF0F0000AF
:204860004C0A002000000020180A002070B5040020680125C169294008D00168C90505D50D
:204880000562E06E2843E06669216554226804200221D3690B4008D093682B4005D0116291
:2048A000E26E0243E2666923E5542268D369034008D093682B4005D01062E06E0143E166EF
:2048C0006921655420680826C169314008D08168294005D00662E06E3043E0666921655493
:2048E000E06E002802D02000FEF7FEF920682021C2690A4009D00068014006D02000FEF7B9
:204900008DFC206881690E43866120688021C2690A4005D00068014002D02000FEF74AFC1B
:2049200020684021C2690A4017D00268114014D001684022914301606920205C322803D160
:2049400022206921605405E020688168A9438160692025542000FEF7A7F970BD816807E000
:204960000268116851185368CB18C36008320260C2689142F4D04A1C826008787047F0B5A9
:2049800087B001000831029102685208D2008918039100250495059501684908C900441811
:2049A000083440686946C307DB0F4B704008C00020180190002735E002A8FFF7CFFF46B282
:2049C0000AE002980168401804900299496840180590029808300290049805998842F0D09D
:2049E000411C0491007869460870BD4210D10198844201D100F01EF82568684640780028F4
:204A000001D048462D1860682F180834BD42EED06846007828706D1C002E08D5761CE4D151
:204A2000BD42C9D101988442C6D107B0F0BD761ED2D5F5E780B5012000F002F801BDFEE789
:204A400080B500F007F8024A11001820ABBEFBE72600020080B500F015F802000023DB43B5
:204A60001068984204D011000220ABBE002010605068984204D0111D0220ABBE00205060F5
:204A800001BD000000487047A805002070B504000025002004262168896831401CD14021BB
:204AA000615C012918D001214022A154E169012904D0200000F012F801280AD012214122B3
:204AC000A15465641C212268116021688A6816438E604034257070BD022070BDF8B50400E8
:204AE000002000902068012581688907890F012905D1016829401ED1C16809041BD4042637
:204B000081680E4A0A4015D181682943816002E00098401C009000983028F9D3FEF7B1FF27
:204B2000070020680068284005D1FEF7AAFFC01B0328F6D304E00020F2BD00001700008089
:204B400041202654606C054365640120F2BDFEE77047FEE77047704780B5FEF78DFFFFF732
:204B60004FFE01BD1F480168C90700D4704780B50121C94341601C48FFF788FFFCF739FBF3
:204B800001BD1A480168C90700D4704780B50121C9434160FCF784FB01BD80B50120FDF7B3
:204BA000F7FD01BD80B58020C000FDF7F1FD80200001FDF7EDFD80204001FDF7E9FD01BDD4
:204BC00010B50B4C01E010B50A4C2000FFF74EFE2000FEF751F810BD80B50348C06BFFF78F
:204BE00095FC01BD0C400140B00500200C10004024000020AC0800201148016801220A435E
:020000040800F2
:204C0000026041680F4A0A40426001680E4A0A40026001680D4A0A40026041680C4A0A4022
:204C20004260C16A0F229143C162016B094A0A400263416B01229143416300218160704711
:204C4000001002400CB8FF08FFFFF6FEFFFFFBFFFFFFC0FF2CFEFFFF10B50749794418314D
:204C6000064C7C44163404E0081D0A68891888470100A142F8D110BD08000000300000003B
:204C8000CBCAFFFFA4040000B005002000000000EFFCFFFF02000000020000007A0000009D
:204CA0008400000000000020B005000000F00BF8002801D0FFF7D0FF0020C046C046FFF7C8
:204CC00019FD00F002F80120704780B500F002F801BDFEE707463846FFF7B2FEFBE7FEE702
:204CE0000148804701480047F94B0008F14C0008C046C046C046C046FFF7D8FFAAAAAAAAF6
:204D0000AAAA0000FEE7FEE7FEE7FEE7FEE7FEE7FEE7FEE7FEE7EC00020100018100810040
:204D2000810081008100E5000301000006F900014006810081008100AB0000018100DA0037
:204D40000003F3000001FD00012003F5000638014000440040FD000048FD000048FD0000BC
:204D600048FD000048FD000048FD000048FD000048FD0008480014004800140048F80000DA
:204D800068FAAA04681300DF16F8000B010203040607080900127A00F8FFFFFFFFFFFFFFEB
:204DA000FFFFFFFFFFFFFFFFFFFFFFFFFFFFFFFFFFFFFFFFFFFFFFFFFFFFFFFFFFFFFFFF13
:204DC000FFFFFFFFFFFFFFFFFFFFFFFFFFFFFFFFFFFFFFFFFFFFFFFFFFFFFFFFFFFFFFFFF3
:204DE000FFFFFFFFFFFFFFFFFFFFFFFFFFFFFFFFFFFFFFFFFFFFFFFFFFFFFFFFFFFFFFFFD3
:204E0000FFFFFFFFFFFFFFFFFFFFFFFFFFFFFFFFFFFFFFFFFFFFFFFFFFFFFFFFFFFFFFFFB2
:020000040800F2
:00000001FF
