:020000040800F2
:10000000B8150020795900085D5500085F550008B3
:1000100000000000000000000000000000000000E0
:100020000000000000000000000000006155000812
:10003000000000000000000063550008655500083E
:100040000B470008000000002B5800082F5900083B
:100050003B590008B355000867590008C15500080E
:100060000000000033560008955900089759000811
:10007000995900089B5900089D590008000000008C
:100080009F5900089755000800000000A15900087A
:1000900075550008A3590008A5590008A75900087C
:1000A000A9590008AB590008AD590008E7550008E8
:1000B000F9550008F6B581B004000126874D2E766B
:1000C000A87E401CC0B2032800DB0020A876A97ED1
:1000D000684601F09BF8002800D1FBE0A87E0028CC
:1000E00053D1E8680002694609780143E960287B3A
:1000F00069464870AF7BE97B687BC243AC2902D07C
:10010000982900D0E6E0D2B2974200D0E2E09829E8
:1001100001D1012000E0002002990870EE76002055
:1001200068760121684601F071F80028F9D0286945
:10013000000269460978014329610221684601F0FD
:1001400065F80028F9D0686900026946097801431A
:100150006961E889698A884202D1E87E401CE876B4
:10016000E889E98A884202D1E87E401CE876E87E88
:10017000022801DB002028762770684640786070EE
:100180002869A070E41C68699EE001284ED12969A5
:1001900009026A4612780A432A61AF7CE97C6B7CCB
:1001A000DA43AC2902D0982900D093E0D2B297422A
:1001B00000D08FE0982901D1012100E00021029AAE
:1001C0001170EE7668760221684601F01FF800286B
:1001D000F9D0686900026946097801436961002124
:1001E000684601F013F80028F9D0E8680002694673
:1001F00009780143E960688AE989884202D1E87E8A
:10020000401CE876688AE98A884202D1E87E401C70
:10021000E876E87E022801DB00202876277028692E
:1002200060706869A070E41CE8684DE0022851D154
:10023000696909026A4612780A436A61AF7DE97DFD
:100240006B7DDA43AC2901D0982943D1D2B29742D1
:1002500040D1982901D1012100E00021029A1170BA
:10026000EE7668760021684600F0D0FF0028F9D0CD
:10027000E8680002694609780143E960012168469F
:1002800000F0C4FF0028F9D0286900026946097807
:1002900001432961E88AE989884202D1E87E401C4D
:1002A000E876E88A698A884202D1E87E401CE876CE
:1002B000E87E022801DB00202876277068696070DC
:1002C000E868A070E41C28692070A87E0199087075
:1002D000002000E0012003B0F0BD000088000020F5
:1002E000F6B581B004000126874D2E76287F401C8C
:1002F000C0B2032800DB00202877297F684600F081
:10030000BFFF002800D1FBE0287F002853D12868D8
:1003100000016946097801432960287869464870D8
:10032000AF78E9786878C243AC2902D0982900D028
:10033000E6E0D2B2974200D0E2E0982901D1012054
:1003400000E00020029908706E7700206876012195
:10035000684600F095FF0028F9D0686800016946FA
:100360000978014369600221684600F089FF00288E
:10037000F9D0A8680001694609780143A960688836
:10038000E988884202D1687F401C6877688869895B
:10039000884202D1687F401C6877687F022801DBB1
:1003A0000020287627706846407860706868A070E2
:1003B000E41CA8689EE001284ED1696809016A46DC
:1003C00012780A436A60AF79E9796B79DA43AC292C
:1003D00002D0982900D093E0D2B2974200D08FE0AB
:1003E000982901D1012100E00021029A11706E7755
:1003F00068760221684600F043FF0028F9D0A8681B
:100400000001694609780143A9600021684600F0AF
:1004100037FF0028F9D028680001694609780143B0
:100420002960E8886988884202D1687F401C687723
:10043000E8886989884202D1687F401C6877687FB4
:10044000022801DB00202876277068686070A868A1
:10045000A070E41C28684DE0022851D1A968090168
:100460006A4612780A43AA60AF7AE97A6B7ADA436D
:10047000AC2901D0982943D1D2B2974240D19829D2
:1004800001D1012100E00021029A11706E77687697
:100490000021684600F0F4FE0028F9D02868000129
:1004A00069460978014329600121684600F0E8FEA9
:1004B0000028F9D06868000169460978014369603D
:1004C00068896988884202D1687F401C687768899A
:1004D000E988884202D1687F401C6877687F0228DB
:1004E00001DB002028762770A86860702868A0705B
:1004F000E41C68682070287F01990870002000E0E3
:10050000012003B0F0BD000088000020F6B581B0E6
:1005100004000127944E37768F4D287B401CC0B2D3
:10052000032800DB00202873297B684600F0E5FEE5
:10053000002800D10CE1287B002858D128688000D1
:100540006946097801432960287869468870A87847
:100550004870E9786878C243AC2902D0982900D065
:10056000F6E068464078D2B2904200D0F0E0982998
:1005700001D1012000E00020029908706F73002073
:1005800070760121684600F0B8FE0028F9D068684E
:10059000800069460978014369600221684600F0DD
:1005A000ACFE0028F9D0A8688000694609780143AC
:1005B000A9606888E988884202D1687B401C68731A
:1005C00068886989884202D1687B401C6873687BAF
:1005D000022801DB002030766846407820706846AB
:1005E000807860706868A070E41CA868AAE00128A0
:1005F00054D1696889006A4612780A436A60A97909
:100600006A465170E9796B79DA43AC2902D09829AE
:1006100000D09DE06B465B78D2B2934200D097E069
:10062000982901D1012100E00021029A11706F7315
:1006300070760221684600F060FE0028F9D0A868B4
:100640008000694609780143A9600021684600F0EE
:1006500054FE0028F9D028688000694609780143D3
:100660002960E8886988884202D1687B401C6873E9
:10067000E8886989884202D1687B401C6873687B7E
:10068000022801DB002030766846407820706868D8
:100690006070A868A070E41C286853E0022857D155
:1006A000A96889006A4612780A43AA60A97A6A464C
:1006B0005170E97A6B7ADA43AC2901D0982947D195
:1006C0006B465B78D2B2934242D1982901D1012185
:1006D00000E00021029A11706F7370760021684665
:1006E00000F00BFE0028F9D02868800069460978E0
:1006F000014329600121684600F0FFFD0028F9D080
:10070000686880006946097801436960688969887A
:10071000884202D1687B401C68736889E9888842F6
:1007200002D1687B401C6873687B022801DB0020D3
:100730003076684640782070A86860702868A0709D
:10074000E41C68682070287B01990870002000E094
:10075000012003B0F0BD0000840D0020F6B581B08B
:1007600004000127004E01E08800002037768F4DFD
:10077000287B401CC0B2032800DB00202873297BA3
:10078000684600F0F4FD002800D10CE1287B002829
:1007900058D12868400069460978014329602878C3
:1007A00069468870A8784870E9786878C243AC29AF
:1007B00002D0982900D0F6E068464078D2B2904244
:1007C00000D0F0E0982901D1012000E0002002993A
:1007D00008706F73002070760121684600F0C7FD35
:1007E0000028F9D0686840006946097801436960CB
:1007F0000221684600F0BBFD0028F9D0A86840003F
:10080000694609780143A9606888E988884202D16D
:10081000687B401C687368886989884202D1687B5C
:10082000401C6873687B022801DB00203076684634
:10083000407820706846807860706868A070E41C1A
:10084000A868AAE0012854D1696849006A4612786C
:100850000A436A60A9796A465170E9796B79DA438B
:10086000AC2902D0982900D09DE06B465B78D2B2CB
:10087000934200D097E0982901D1012100E00021A6
:10088000029A11706F7370760221684600F06FFD56
:100890000028F9D0A8684000694609780143A9609A
:1008A0000021684600F063FD0028F9D02868400068
:1008B0006946097801432960E8886988884202D13D
:1008C000687B401C6873E8886989884202D1687B2C
:1008D000401C6873687B022801DB00203076684684
:1008E0004078207068686070A868A070E41C286870
:1008F00053E0022857D1A96849006A4612780A4392
:10090000AA60A97A6A465170E97A6B7ADA43AC290F
:1009100001D0982947D16B465B78D2B2934242D13D
:10092000982901D1012100E00021029A11706F7312
:1009300070760021684600F01AFD0028F9D028687A
:10094000400069460978014329600121684600F0AA
:100950000EFD0028F9D06868400069460978014317
:10096000696068896988884202D1687B401C687325
:100970006889E988884202D1687B401C6873687B7B
:10098000022801DB00203076684640782070A86895
:1009900060702868A070E41C68682070287B01994A
:1009A0000870002000E0012003B0F0BD940D00208D
:1009B00002000020002900D1704710B48B079B0F64
:1009C00005D014780019C0B2521C5B1EF9D18908F9
:1009D0000ED01378C018C0B25378C018C0B2937844
:1009E000C018C0B2D378C018C0B2121D491EF0D1D1
:1009F00010BC7047F1B586B0002000F033FF02AAAA
:100A000002A9491C01A8FFF781FD002801D101209E
:100A10001CE002AA02A9491C01A8FFF79FFE0028BA
:100A200001D1022012E002AA02A9491C01A8FFF785
:100A300041FB002801D1032008E002AA02A9491CB9
:100A400001A8FFF74DFC002800D0BBE16946887083
:100A5000002000F0F9FE6846007906994872F028F7
:100A600001D10420AFE16A469072E12801DB032046
:100A7000A9E100206946C8700699C8716846007AE5
:100A8000069988720698807A0028914C49D0684669
:100A90008078002801D18F4D0AE068468678012EC3
:100AA00001D18D4D04E0022E01D18C4D00E08C4D22
:100AB000617E207E0028684622D1A8470028E6D023
:100AC00068460678617E491CC9B26846A847002876
:100AD000F8D068460778617E891CC9B26846A84785
:100AE0000028F8D068460078B74206D0864204D085
:100AF0008742684602D1077109E06846067106E040
:100B0000A8470028C3D0684600786946087101A844
:100B10004078000269460979401880B200F077FFFA
:100B200001E001A8407806990871069800796946A5
:100B3000497A8206920F521E914221D102200699D3
:100B4000C87106980068039000281DD06846807A16
:100B5000002800D105E16846807A049068468678CE
:100B600000F064FF0498401E04900698807A0028E4
:100B700000D19EE068468078002807D1554D0EE0F0
:100B80004006DED406201EE102201CE1012E01D128
:100B9000514D04E0022E01D1504D00E0504D617ED8
:100BA000207E002800A82AD1401CA8470028E1D0B8
:100BB00068464778617E491CC9B200A8401CA84716
:100BC0000028F7D06846407869460870617E891C25
:100BD000C9B200A8401CA8470028F7D06846407852
:100BE00069460978B94207D0874205D06946097835
:100BF000814201D1084608E001A8477007E0401C87
:100C0000A8470028B6D06846407801A948706846D1
:100C10008078002801D12F4D08E0012E01D12E4D02
:100C200004E0022E01D12D4D00E02D4D617E207E8D
:100C3000002800A82BD1401CA8470028E7D0684610
:100C40004778617E491CC9B200A8401CA84700280B
:100C5000F7D06846407869460870617E891CC9B241
:100C600000A8401CA8470028F7D06846407869468D
:100C70000978B94208D0874206D06946097881428E
:100C8000684602D1084608E06846077107E0401C44
:100C9000A8470028BBD0684640786946087101A87B
:100CA0004078000269460979401880B200F0AFFE32
:100CB0004AE068468078002801D1064D13E0012EF5
:100CC00001D1054D0FE0022E0CD1044D0BE000BF09
:100CD00088000020C112000835130008B113000875
:100CE00047120008A94D617E207E0028684626D163
:100CF000A8470028DDD068460778617E491CC9B244
:100D00006846A8470028F8D06846007869464870C9
:100D1000617E891CC9B26846A8470028F8D0684699
:100D2000007869464978B94207D0874205D06946BC
:100D30004978814201D1084606E0380004E0A8471E
:100D40000028B6D06846007803996A46D27888545D
:100D50006846C078401C6946C8700498002800D0D6
:100D6000FEE66846C078801E6946C8700398002178
:100D70006A46D278002A1BD06A46D27893079B0F26
:100D800005D004780919C9B2401C5B1EF9D192083C
:100D90000ED00378C918C9B24378C918C9B283788C
:100DA000C918C9B2C378C918C9B2001D521EF0D102
:100DB00003986A46D278805C884201D0052002E020
:100DC000012000E0002007B0F0BDF2B582B00500C0
:100DD00002246F480470022000F036FD012000F06C
:100DE00033FD6C48407E002805D10021280000F02A
:100DF000E5F800240BE0012805D10121280000F0CE
:100E0000DDF8012403E00221280000F0D7F8A8064D
:100E1000850F6E460298807A002801D0F32000E00A
:100E2000AC20307000F002FE22002900684600F07D
:100E3000E8F80028F8D00298807A002801D098209D
:100E400000E0AC20307000F0F1FD2200290068467F
:100E500000F0D7F80028F8D00298407A019030705E
:100E600000F0E4FD22002900684600F0CAF80028DE
:100E7000F8D00198C143317000F0D8FD220029005C
:100E8000684600F0BEF80028F8D02000032100F0EA
:100E9000B3FE41000818201A029908180079307032
:100EA00000F0C4FD0298807A002814D0307800F059
:100EB00069FD010A7170307022002900701C00F079
:100EC000A0F80028F8D022002900684600F099F820
:100ED000002807D1F7E722002900684600F091F8C2
:100EE0000028F8D0029807680198401EC0B2012877
:100EF00029DB019038787F1C307000F097FD029854
:100F0000807A002814D0307800F03CFD010A71701E
:100F1000307022002900701C00F073F80028F8D00F
:100F200022002900684600F06CF8002807D1F7E796
:100F300022002900684600F064F80028F8D00198E3
:100F4000401E0190D6D100F071FD220029006846B4
:100F500000F057F80028F8D000F068FD22002900C2
:100F6000684600F04EF80028F8D0200000F038F86D
:100F700000200949088001200649087600F072FC2B
:100F8000022000F06FFC002003B0F0BD4712000803
:100F9000A40D002088000020820D002000B581B043
:100FA0000120984908714871887100200880887074
:100FB0002521954800F098FE01B000BD002903D11D
:100FC0000020904908717047012903D100208D4904
:100FD00048717047022902D100208A498871704700
:100FE000002803D10120874908717047012802D1E8
:100FF000844948717047022802D1012081498871D3
:101000007047F0B481B006B485B0007802907D4896
:101010006946097E40180390047880256846007D63
:10102000002850D100216A4603C2684603C8000C5C
:101030006A4603C202988021E140014003D00020AB
:101040009E496A4603C2684603C8000C0A0410435E
:10105000090C6A4603C20298611C8022CA40024001
:1010600007D068460CC800209449801859416A4648
:1010700003C2684603C8000C0A041043090C6A4600
:1010800003C20298A11C8022CA40024007D06846D1
:101090000CC800208949801859416A4603C2684635
:1010A00003C8000C0A041043090C6A4603C20298E4
:1010B000E11CCD40054059D068460CC800207F494E
:1010C0008018594130E06846007D012821D1002078
:1010D00000216A4603C26A4603C202988021E140A9
:1010E000014004D000200021C9436A4603C268467B
:1010F00003C8080000216A4603C20298611CCD4063
:10110000054033D068460CC800200021C943801830
:101110000AE002280BD10298E540054002D0A2A0C7
:1011200003C801E0002000216A4603C21EE000203F
:1011300000216A4603C227000826684603C8000A41
:101140000A061043090A6A4603C202988021F94040
:10115000014008D068460CC80020FF21090680180D
:1011600059416A4603C27F1C761EE6D1684603C811
:101170006A46127E002A21D0022A01D012D339E019
:10118000204A936B01225D0A154033D0974D1D40D4
:101190001C4B9D63964B03C36846007D002819D104
:1011A000241D22E0174A936B01221D0A154021D00D
:1011B000904D1D40134B9D638F4BECE7114A936B91
:1011C0000122DD09154015D08025AB430D4DAB63E1
:1011D000B34BE0E76846007D012801D1A41C04E080
:1011E000022801D1641C00E00834E4B2082C01DBC1
:1011F000002400E0002203980470100008B0F0BC46
:1012000070470000080D0020440D0020F0B50400D8
:101210000F00002500263800032100F0EDFC4100FE
:1012200008183A1AD2B2A049D00008180379082B3E
:1012300007DB012672B692008918097E057162B635
:1012400021703000F0BDF0B504000F00002500262D
:101250003800032100F0D0FC410008183A1AD2B23D
:101260009149D00008180379082B07DB012672B6D4
:1012700092008918097E057162B621703000F0BDB8
:10128000F0B504000F00002500263800032100F00F
:10129000B3FC410008183A1AD2B28349D0000818AA
:1012A0004379042B07DB012672B692008918497E28
:1012B000457162B621703000F0BD00000000FFFFF4
:1012C000F0B504000F00002500263800032100F0CF
:1012D00093FC410008183A1AD2B27349D00008189A
:1012E0004379082B07DB012672B692008918497EE4
:1012F000457162B621703000F0BDF0B504000F00FA
:10130000002500263800032100F076FC4100081873
:101310003A1AD2B26449D00008188379022B07DB4D
:10132000012672B692008918897E857162B6217095
:101330003000F0BDF0B504000F0000250026380095
:10134000032100F059FC410008183A1AD2B256495C
:10135000D00008188379082B07DB012672B69200AB
:101360008918897E857162B621703000F0BDF0B5B4
:1013700004000F00002500263800032100F03CFC8B
:10138000410008183A1AD2B24749D0000818C37968
:10139000002B07D0012672B692008918C97EC5714C
:1013A00062B621703000F0BDFFFFFFFFFFFFFFFFBF
:1013B000F0B504000F00002500263800032100F0DE
:1013C0001BFC410008183A1AD2B23749D00008185D
:1013D000C379082B07DB012672B692008918C97EF3
:1013E000C57162B621703000F0BD0000FFFDFFFF47
:1013F000380D0020FFFEFFFF300D002070B5040007
:10140000A04D2100280000F03DFD002838D121002A
:10141000280000F037FD002832D19B4801680122E6
:101420009143016001211F4A984B456A984EB5428D
:1014300002D30D051D6003E01B681B0D0B4003D09C
:10144000936B08251D4395630123DB430361002350
:101450004362036819430160000D844206D04000D6
:1014600084420ED04000844212D070BD906B0007C1
:10147000C10F012048405081906B08218843906340
:1014800070BD906B0007C10F012048409081F3E7C9
:10149000906B0007C10F01204840D081ECE70000AD
:1014A000280D0020080D0020440D002030B581B02B
:1014B000784C6089FA218900884201DA401C6081F9
:1014C000A089884201DA401CA081E089884201DAC3
:1014D000401CE081207A65890F2D01DA6D1E0CE039
:1014E000A5890F2D05DA2800032100F088FB80B2C2
:1014F00007E0E5890F2D08DA6D1C2800032100F0B4
:101500007BFB41000818281A04E0401CC0B20328E5
:1015100000DB00202072207A00F02CFD0020607299
:1015200000F044FE00F0D8FE00F022FF207A0028F0
:1015300007D0022801D002D305E0A07902E060794B
:1015400000E02079E071E079012802D100F064FD2B
:1015500001E000F069FD01B030BD70B54D4CE3799C
:10156000607A002820D1002B1ED1207A002802D1D9
:101570002000203006E0012802D12000283001E0C0
:101580002000303003C82200183203C2A26B2000B2
:10159000183003C80126064003D002208243A2630C
:1015A00002E002201043A063012B17D180218901A2
:1015B000344800F067FC002808D0200010300CC828
:1015C0000120104319002200103203C22000103005
:1015D00003C8001849412200103226E00125A26B01
:1015E000AA432000183003C828401043A063810795
:1015F000CA0FC307DB0F9A420ED0284002D000F07A
:10160000DDFD01E000F0F4FDA06B0100022291433A
:10161000054068000843A0632000183003C8400854
:10162000CA07104349082200183203C2607A401CDE
:101630006072C0B2402824DB0020607200F0DEFC43
:10164000227AE079012804D1103403CC00F024F888
:1016500070BD002A04D100F0A9FDA06B80210EE02E
:10166000012A05D100F0A2FDA06B8021490006E00F
:10167000022A06D100F09AFDA06B80218900014367
:10168000A16370BD000400480040014000E200E09A
:1016900071170000080D002077B484B004A80CC8AE
:1016A00065A003C85040594000220826002352007C
:1016B00080252D060D4000D00123001849418025CA
:1016C0002D060D4000D05B1C0018494180252D06D9
:1016D0000D4000D05B1C0018494180252D060D40AF
:1016E00000D05B1C0018494180252D060D4000D01C
:1016F0005B1C0018494180252D060D4000D05B1C65
:101700000018494180252D060D4000D05B1C0018B3
:1017100049410D0080210906294000D05B1C2900A9
:1017200000184941DBB2052B00DA521C761EBDD1F0
:101730006846007E3F498300CB1802931A76C000AA
:1017400008180090007908300099087104A803C8AF
:1017500039A430CC44404D400022042001900023A5
:101760005200102680210906294000D05B1C241954
:101770006D41761EF6D1DBB2092B00DA521C0198BE
:10178000401E0190EBD10298407E00010243029876
:10179000427600984079001D0099487104A803C85A
:1017A00025A430CC44404D4000220220019000236B
:1017B0005200202680210906294000D05B1C2419F4
:1017C0006D41761EF6D1DBB2112B00DA521C019866
:1017D000401E0190EBD10298807E80000243029867
:1017E000827600988079801C0099887104A803C8CB
:1017F00011A20CCA42404B4000244025802109061A
:10180000194000D0761C92185B416D1EF6D1F6B2DD
:10181000212E00DA01240298C07E40000443029881
:10182000C4760098C079401C0099C87107B070BC9C
:1018300070470000440D0020FFFFFFFFFFFFFFFF88
:10184000C02080047047000000B581B0012200BFB5
:1018500038A14300C95A314B8000185800F019FBD9
:1018600001B000BD00B581B0002200BF31A143002E
:10187000C95A2A4B8000185800F00BFB01B000BD7C
:1018800070B586B00C0001000ED180229202224871
:1018900003681343036003681A43026042688023AD
:1018A000DB01134343600DE001290BD1802292023A
:1018B0001948036813430360036813430360836894
:1018C0001A4382604D0000BF16A0405B00901220BA
:1018D000019000200390029014A0405B04901048F7
:1018E000890046186946B06800F000FA0EA0405B17
:1018F0000090022001900120029000BF0CA0405BEC
:1019000004906946306900F0F1F9306820602000E9
:1019100000F096FE06B070BD14100240D400002006
:10192000A8000020000204000004080001000100DB
:101930000100010020000200000800080121F0223F
:1019400002400120104302094309D2188309D2182A
:101950000A4002D002000820104302094309D218AD
:10196000C309D2180A4002D0020004201043020921
:101970008309D218C309D218114002D001000220F5
:101980000843704730B581B00500FFF7D7FF040268
:101990002801C0B2FFF7D2FF01002000084301B0C8
:1019A00030BD30B4C2098109040963189B18450889
:1019B0005B1945096419A218850852190125611897
:1019C000C4080919294011D02A4007D01D4002D06F
:1019D0000100102018E00100202015E01D4002D079
:1019E0000100402010E0010008200DE02A4007D04F
:1019F0001D4002D00100802006E00100042003E029
:101A00001D4002D001000220484030BC704730B574
:101A100081B00400000AFFF7C4FFF0250540E0B2E2
:101A2000FFF7BFFF0009284301B030BD704730B554
:101A300081B0FFF7B3FA5A4807214172594C22008E
:101A40002432026091220271A1234371B125857174
:101A50006177822040002018606122766376A57647
:101A60000020A074FF220C21200000F01FF920208C
:101A7000205CFE2101402034217001B030BDF0B562
:101A800081B0474C484EB07A60722068217B01706B
:101A9000617B4170A17B8170C01CE17B0170256876
:101AA0002D1D01219020C00500F0ECF90028207CBC
:101AB000617C04D0890001431020084301E08900C3
:101AC000401828706D1C607A28706D1C627AF1686D
:101AD000280001F009F8607A2D1820682E1A6F1C72
:101AE000F1B2FEF765FF287091202071607A08300E
:101AF0006072761CF1B2206801F024F83870210081
:101B00003020FFF762F9294800683230A0820120B6
:101B1000E07401B0F0BD0000F0B581B0244F204E5C
:101B2000214D05E0032803D12248007801F092F905
:101B3000641C8020400284420AD30024092200BF92
:101B40001FA1E86800F0D0FF0920A872FFF797FFF7
:101B50002878C1070CD5FE2101402970AB7AEA68CC
:101B60000A21154801F0A6F9FFF789FF0020B0749B
:101B70003000FEF73FFF012807D1727A083A92B28F
:101B80003168891D0D4801F049FA38780328387802
:101B9000C8D00428C8D038780628C9D1C4E70000C6
:101BA0006C0D00207C090020EC060020A80D002010
:101BB000AD0D0020920D0020E80000200044004000
:101BC000616263646566676869000000F446002826
:101BD00004D4494200F013F84042604740420029D3
:101BE00005D45FD000F00BF84042494260474942BB
:101BF00000F005F84942604703460B43E6D4002253
:101C0000030A8B420BD203098B4219D243088B4241
:101C10002ED2411A00D20146524110467047FF228F
:101C200009023FD012068B4205D3121209028B42E1
:101C300001D31212090203098B4219D300E0090AE9
:101C4000C3098B4201D3CB01C01A524183098B4295
:101C500001D38B01C01A524143098B4201D34B017E
:101C6000C01A524103098B4201D30B01C01A5241E1
:101C7000C3088B4201D3CB00C01A524183088B4268
:101C800001D38B00C01A524143088B4201D34B0051
:101C9000C01A5241884200D3401A5241CFD2014665
:101CA0001046704708B501F0D3F908BD1206130AB3
:101CB0001A43130C1A4300BF130030B4140015006C
:101CC000103902D310393CC0FCD2490700D30CC0F4
:101CD00000D504C0890002D30280801C002900D5F1
:101CE000027030BC704700000022E5E7F0B483B01A
:101CF000002201240D68002D00D1C0E00D680126EE
:101D000096402E400296029D002D00D1B2E04D6813
:101D1000022D01D0122D18D1D508AD0045192E6A1B
:101D200000965607F60E6F463E71009FBC466E4603
:101D300037790F26BE406746B743BC460F696E46EB
:101D40003679B740664637432F62066855006F46BE
:101D50003D7103276D462D79AF40FD432E40B446BB
:101D60000E79B707BF0F6E463679B74066463743E0
:101D700007604E68012E05D0022E03D0112E01D02F
:101D8000122E13D186682E40B446CF686E4636793F
:101D9000B740664637438760476801269640B74399
:101DA0004E683609264096403E434660C668354038
:101DB0008E686F463F79BE402E43C6604D68ED0089
:101DC00058D53D4D2D6825433B4E35603B4D96081B
:101DD000B600AD1900952E6895072D0F0F27AF405F
:101DE000BE439027FF05B84201D100270FE0344FD2
:101DF000B84201D101270AE0324FB84201D102278F
:101E000005E0314FB84201D1032700E00527AF407C
:101E10003743009D2F602D4D2D68029FFE43009695
:101E20002E404D68ED0302D53500029E2E43274D0E
:101E30002E606E68009D35404E68B60302D52E00B8
:101E4000029D3543214E7560B668009D35404E6851
:101E5000F60202D52E00029D35431C4EB560F66891
:101E6000009D35404E68B60202D52E00029D3543D6
:101E7000164EF560521C0D68D54000D03EE703B009
:101E8000F0BC704700690840401E8041C043C00F4D
:101E90007047002A00D10904816170470C4A136819
:101EA000034000D1704700B581B0106000F058F8D1
:101EB00001B000BD00000000181002400800014001
:101EC0000004004800080048000C004800040140DD
:101ED0001404014030B585B0574801688022D20211
:101EE0000A430260002501950295E020000200905F
:101EF000614C69462000FFF7F9FE01200190C020E7
:101F000000020090039569462000FFF7EFFE0122D2
:101F100091032000FFF7BDFF00228021090220006D
:101F2000FFF7B7FF05B030BD00B585B04248016886
:101F30008022D2020A43026051480190012002909F
:101F40008002009069464D48FFF7D0FE0022002134
:101F5000072001F093F8072001F0AAF805B000BDB2
:101F600010B50400FFF74AFA402C02D1684800F08F
:101F7000A9FE10BD10B5002816D0012809D13F4C8C
:101F800000228021C9012000FFF783FF0122D10335
:101F900013E0022808D1394C012291032000FFF7F9
:101FA00078FF0122D10308E0344C01229103200084
:101FB000FFF76FFF0022802109022000FFF769FF71
:101FC00010BD10B55348016810220A430260764CD8
:101FD000206820608548E0620020A0620022012184
:101FE000112001F04BF8112001F062F80120E168A6
:101FF0000143E16021680843206010BD6A48016820
:102000000122914301600121C9430161410B864ACC
:1020100011600021416270476348002141620168FC
:1020200001220A43026070475F48804941620168AB
:1020300001220A43026070471410024010B57C4828
:102040000168802252020A4302607A4C20682060B4
:102050007948E0621720A06200220021142001F0DC
:102060000DF8142001F024F80120E1680143E1603B
:1020700021680843206010BD0004004800040048A7
:102080000000211070B56D488168820D0A4382609E
:102090000168802292020A4302608E4C3C2120009B
:1020A0001430FFF721FE20005030002100220023D1
:1020B00000252EC00EC002206060A560E5600426E9
:1020C00026611020206021009020C005FFF70EFE41
:1020D000A720E066A5496161A56120626562E561AE
:1020E0002000143001F00CF860202065A5652666FC
:1020F000E06E40086065002221005031200014305D
:1021000001F07AF800211434200001F046F870BD87
:10211000E80000201C10024030B581B04748802103
:10212000890242680A434260026811430160694CB7
:102130003C2120001430FFF7D7FD20005030002153
:102140000022002300252EC00EC002206060A56082
:10215000E560052020614020206021009020C0051E
:10216000FFF7C4FD86486061A561FF20263020622C
:102170006562E5612000143000F0C2FF6020206538
:10218000A565042020669220606500222100503160
:102190002000143001F030F800211434200000F049
:1021A000FCFF01B030BD0000001000407448016821
:1021B0000122914301600021416270477048416AE9
:1021C00089B2026801239A430260892902D39329C4
:1021D00000D293214162FF212431C16292214163E7
:1021E000016801220A43026070470000660800008F
:1021F0006348416A89B2026801239A430260FF2260
:102200001032914201D3511E04E0922902D2882952
:1022100000D387214162C2628821416301680122A3
:102220000A4302607047000080E200E05C080000A2
:1022300018100240004001400A1A00001410024029
:1022400030B581B04F4841688022D2020A434260D3
:102250000168802292020A4302601E4C3C21200049
:102260001430FFF741FD20005030002100220023F0
:1022700000252EC00EC002206060A560E56005202C
:1022800020618020206021009020C005FFF72EFDF6
:1022900065486061A5618520400020626562E56156
:1022A0002000143000F02CFF60202065A56504207C
:1022B0002066852060650022210050312000143006
:1022C00000F09AFF00211434200000F066FF01B0F6
:1022D00030BD0000D00B002053480168012291431B
:1022E000016000214162704770B52648022581686F
:1022F0002943816001686A040A430260654C3C21FD
:1023000020001430FFF7F0FC2000503000210022A4
:10231000002300264EC00EC065600025A560E56064
:1023200001202061206021006848FFF7DFFC684839
:102330006061A561F02020626562E56120001430D3
:1023400000F0DEFE60202065A56504202066782070
:1023500060650822210050312000143000F04CFF4D
:1023600008211434200000F018FF70BD0020004048
:102370005748016801229143016000214162704782
:102380000044014014100240F0B581B0A64EA748A9
:10239000306096208001706080204001B060002590
:1023A000F56080083061B5610C277761310000204D
:1023B000FFF766FA002204211B2000F05FFE1B20BD
:1023C00000F076FE9A4C9B48206296208001606265
:1023D00080204001A062E56280082063A5636763F6
:1023E000210020310120FFF74BFA002204211C209C
:1023F00000F044FE1C2000F05BFEC82040002018C6
:102400008D49C86020009030E06001222100183121
:10241000300000F049F9012221001C312034200055
:1024200000F042F901B0F0BD0048014010B500686D
:102430007E49884208D17E4C207D012819D100F0C8
:102440004DF80020207510BD7A49884211D1784C92
:10245000607D01280DD1207F2178C90707D4642130
:10246000A174E168228988542089401C20810020C1
:10247000607510BD00686D49884203D101206F4925
:10248000087070476B49884202D101206B4948703F
:1024900070470000D00B002000686449884203D1D7
:1024A0000120634908757047624988420CD1604831
:1024B000017F0278D20707D464228274C26803893C
:1024C000D1540189491C0181704700000004004873
:1024D000000400400021C1667047000030B581B0A3
:1024E00053490A7E8B7D5448C47C072C00D98DE06B
:1024F00001A52D5D6D00AF44030E26494F66747B28
:10250000672A02D0682A00D084E00123C374427095
:10251000C46822707EE0C568EC185B1C4578672DA6
:102520000BD1028122700222C274C268002A71D1CA
:10253000C82252008A18C2606CE02270DBB2072BFE
:1025400068DB022252E04478672C18D10589AB423F
:1025500002D2C468E2545B1CDCB20589AC4259D398
:10256000C4680123162A08D1427822700289C468FF
:10257000627003700024C47446E0FE22F5E7682A06
:10258000F8D1C468E2545B1C03222FE0C272C46815
:10259000E2545B1C042229E0002A07D10622C274FF
:1025A00000248472C268D4545B1C33E0E02A04DB4C
:1025B000E02282720222027003E08272C468E25456
:1025C0005B1C052212E0857A0A35AB4202DAC56847
:1025D000EA545B1CDBB2827A0A3293421ADB06228F
:1025E00004E04274C468E2545B1C0722C27411E028
:1025F0000024162A08D101250570C4740274C56828
:10260000EA545B1CDBB20381002303E000240023B7
:10261000C47404708B75052282740122183102483B
:1026200000F042F801B030BD600B002000380140DE
:10263000EC06002000440040F40C0020E4000020E0
:1026400010B5040013D06920205C002802D12000BE
:1026500000F026F8022069216054206801680122F8
:1026600091430160200000F037F9012801D10120D9
:1026700010BD606A002802D0200000F0ADF920688B
:102680004168084A0A40426081682A229143816079
:10269000016801220A430260200000F0CBF810BD5F
:1026A00070470000FFB7FFFF70B46923C45C012CC2
:1026B00001D0122C40D1002901D0002A01D10120E3
:1026C0003BE06823C35C012B36D001236826835589
:1026D0004165582142525A21425281681A0391425F
:1026E00006D10169002901D1154909E0FF2107E060
:1026F000002907D10169002901D1FF2100E07F21D4
:102700005C2281520021C166122C01D1322200E0EC
:10271000222269240255026814681D0225431560AF
:102720000268946823439360815500680168202201
:102730000A430260002000E0022070BC70470000E5
:10274000FF0100006930007870476921415C12295F
:1027500001D032292BD15221415A002909D10068D8
:102760000168802291430160016840220A430260AF
:102770001BE081688022520191420BD1016900293E
:1027800008D1C16C0A88D205D20D03681A85891C4C
:10279000C16405E0C16C4A1CC264097802681185F5
:1027A0005221415A491E52300180002070470220B8
:1027B000704710B55C21415A6922825C222A01D0FF
:1027C000322A35D1426D836880246401A34208D146
:1027D0000369002B05D103689B8C19401180921C62
:1027E00004E003689B8C19401170521C42655A2109
:1027F000415A491E5A228152090417D101680A68B8
:1028000020239A430A606922825C322A01D1122174
:1028100008E00A682F4B13400B608A6801239A4333
:102820008A60012169228154FFF736FE002010BD25
:10283000022010BDF0B581B004000025E5662068D7
:102840000068000710D500F057FE00908026B604FF
:1028500037092068C069384006D100F04DFE009964
:10286000401AB042F5D313E020680068400729D52C
:1028700000F042FE00908027FF03FE002068C06940
:1028800038401FD100F038FE0099401AB042F5D30D
:10289000206801688022914301602068016820223D
:1028A00091430160206801680A4A0A40026020687A
:1028B00081680122914381606921625468342570E6
:1028C000032005E001206921605468342570002050
:1028D00001B0F0BDFFFEFFFFF0B581B00400102293
:1028E00000200025266831686D4F0F40A1683943EC
:1028F00027690F4361693943E7690F433760776898
:1029000068493940E7680F437760B76866493940DE
:10291000A7690F43216A3943B16064498E420FD1E0
:10292000634909688907890F0DD0022906D003D3AE
:10293000032909D1022207E0042205E0082203E06E
:102940005C498E4200D10022E16980231B0299423A
:1029500020D1002A06D0022A08D0042A08D0082A4A
:102960000AD00EE000F0ECFD400006E0524804E022
:1029700001F076F8400000E058006168FFF73FF989
:1029800000E001254D4901400004400C4007400F84
:10299000084313E0002A06D0022A07D0042A07D0F1
:1029A000082A0ED014E000F0CBFD03E0444809E013
:1029B00001F056F86168FFF722F980B22168C8601B
:1029C00007E018466168FFF71AF980B2F06000E08E
:1029D0000125280001B0F0BD2421415CC90706D5BE
:1029E00001684A68374B1340826A1A434A602421BF
:1029F000415C890706D501684A68334B1340C26AB7
:102A00001A434A602421415C490706D501684A6897
:102A10002E4B1340026B1A434A602421415C090784
:102A200006D501684A682A4B1340426B1A434A6034
:102A30002421415CC90606D501688A68254B1340EC
:102A4000826B1A438A602421415C890606D501689D
:102A50008A68214B1340C26B1A438A602421415C6F
:102A6000490611D501684A681C4B1340026C1A4391
:102A70004A60026C80235B039A4205D14A68184B76
:102A80001340426C1A434A602421415C090606D572
:102A900001684A68134B1340806C184348607047C4
:102AA000F369FFFFFFCFFFFFFFF4FFFF0038014096
:102AB00030100240004400400024F400F0FF000009
:102AC00000127A00FFFFFDFFFFFFFEFFFFFFFBFF8D
:102AD000FF7FFFFFFFEFFFFFFFDFFFFFFFFFEFFFC6
:102AE000FFFF9FFFFFFFF7FF124207D08B0706D0C3
:102AF0000B78491C0370401C521EF7D8704783079F
:102B000006D00B78491C0370401C521EF9D1704747
:102B100070B4103A03D378C9103A78C0FBD2530787
:102B200001D318C918C001D508C908C0D20704D3F9
:102B30000B880380891C801C002A01D50B78037048
:102B400070BC704730B4002200291AD08C07A40F43
:102B50000EA305D005785540401C5A5D641EF9D17E
:102B600089080ED0047854401C5D427862409C5C19
:102B7000827862409C5CC2786240001D9A5C491E6B
:102B8000F0D1D043C0B230BC7047000000070E093E
:102B90001C1B1215383F363124232A2D70777E797D
:102BA0006C6B6265484F464154535A5DE0E7EEE96D
:102BB000FCFBF2F5D8DFD6D1C4C3CACD90979E995D
:102BC0008C8B8285A8AFA6A1B4B3BABDC7C0C9CE4D
:102BD000DBDCD5D2FFF8F1F6E3E4EDEAB7B0B9BE3D
:102BE000ABACA5A28F88818693949D9A2720292E2D
:102BF0003B3C35321F18111603040D0A5750595E1D
:102C00004B4C45426F68616673747D7A898E87800C
:102C100095929B9CB1B6BFB8ADAAA3A4F9FEF7F0FC
:102C2000E5E2EBECC1C6CFC8DDDAD3D4696E6760EC
:102C300075727B7C51565F584D4A4344191E1710DC
:102C400005020B0C21262F283D3A33344E494047CC
:102C500052555C5B7671787F6A6D64633E393037BC
:102C600022252C2B0601080F1A1D1413AEA9A0A7AC
:102C7000B2B5BCBB9691989F8A8D8483DED9D0D79C
:102C8000C2C5CCCBE6E1E8EFFAFDF4F310B50324BE
:102C900003E0E4B2002C06D0641E01F0E7FA00283D
:102CA000F7D1240609D101207F4908700122802133
:102CB0007E48FFF7EEF8012010BD01F05BFB00201D
:102CC00010BD000030B583B004006846002100222A
:102CD00006C00023684600F03FFF694688780A79FD
:102CE000714DD10701D50121E98008210A4201D0A7
:102CF00003222A70084201D0042031E0C10633D5F6
:102D0000287900280AD10421E01C01F0D3F9E078E9
:102D100004280DDBC11EC9B2E01D07E06979002956
:102D200006D04200101800012018C01C01F0C2F9A2
:102D300000F0C8FF5E48C17861704178212905DB49
:102D40004178272906DB4178482903DA2FA140780A
:102D5000085C2070E078C01EA070207920700320ED
:102D600068700020E8804EE0C1071ED52879002851
:102D70000CD10421E01C01F09DF92C21E01D01F093
:102D800099F9E0782F38687101200CE03021420079
:102D9000101800012018C01C01F08CF96879303837
:102DA00068712879401C28712DE0810607D5002024
:102DB000A87006216970C1218900605423E0800752
:102DC00021D5A978312910DB3021E878420010188C
:102DD00000012018A1225200801801F015F9E878AE
:102DE000401CE870A87830380CE000290BD0E87857
:102DF0004200101800012018A1225200801801F092
:102E000003F90020A87003B030BD000002040608DA
:102E10000A0C0E10121416181A1C1E202224262822
:102E20002A2C2E3000323436383A3C3E405858581E
:102E3000585858030507090B0D0F11131517191BC7
:102E40001D1F21232527292B2D2F313335370139FC
:102E50003B3D3F4130B585B0050002A8002100226E
:102E600006C0002302A800F077FE0F4C207801284E
:102E700016D0422D00DB4125022001F073F9082015
:102E80000190032000900023002200215048405D63
:102E900001F054F800202071607101206070002062
:102EA00005B030BD00000000AC0D0020000400485B
:102EB00000000020F2B584B004001D0002A800212B
:102EC00000230AC000206946888042480078012813
:102ED0007CD0FC2D00DBFB256846007C422801DB12
:102EE000412008740020002D22D00095A907890FE9
:102EF00007D0135C261883277F00F355401C491E1A
:102F0000F7D10099890813D0135C261883277F0016
:102F1000F355401C135C2618F355401C135C26180F
:102F2000F355401C135C2618F355401C491EEBD189
:102F30000126C121890061184E70E71CE81C387019
:102F40006846007C7870BE703878797841400120FE
:102F50004840F8700020C1218900611848700320A2
:102F600000F04CFF00230022002102A800F0F4FD35
:102F7000012001F0F7F83D2D09DB28003C38154908
:102F800088700421380001F03FF83C2107E0002060
:102F9000104988700421380001F036F82900832098
:102FA0004000201801F030F805200A494870C1207F
:102FB000800026542D1DAAB2302105486B461B7C8B
:102FC000C05C00F065FF00200249C87005B0F0BD8C
:102FD000D82F0008AC0D0020184200270128022934
:102FE000032A042B052C062D072E082F09300A3141
:102FF0000B320C330D340E350F36103711381239B1
:10300000133A143B153C163D173E193F1A401B411D
:103010001C431D441E451F4620470000002A00D1C6
:10302000704710B440230C780485C4691C40FCD060
:10303000491C521EF7D110BC7047044988814022B8
:103040000B681340FCD07047000000001C44004097
:10305000704730B4012100220368001D002B0BD003
:103060000468001D0C4202D04D466D1E641922609A
:10307000241D1B1FF0D0FAE730BC704710B4820744
:10308000D30EFF249C40E2438907090E99400300B8
:1030900004D516481B071B0F083B00E014489B088B
:1030A0009B00C01803681A401143016010BC7047B0
:1030B0000121C006C00E81400E4801607047401ECD
:1030C00080214904884201D3012070470A494860A1
:1030D0000A4802681202120AC0231B061343036047
:1030E0000020886007220A60704700001CED00E0A5
:1030F00000E400E000E100E010E000E020ED00E08E
:1031000030B581B0040001D1012043E03920205CBA
:10311000002802D1200000F03FF80220392160543D
:10312000211D206803682D4A904202D02F4DA842ED
:1031300006D17025AB431D004B682B4390420ED047
:103140002A4DA8420BD02A4DA84208D0244DA842AF
:1031500005D0244DA84202D0234DA84203D1254DCD
:103160001D40CB682B4303608B68C3620B6883628E
:10317000904208D01A4A904205D01A4A904202D092
:10318000194A904201D10969016301214161393431
:103190002170002001B030BD70470068012201237A
:1031A0008B40016A99430162016A0B4303620B4938
:1031B000884208D00A49884205D00A49884202D08C
:1031C0000949884203D1416CD3030B43436401682E
:1031D0000A4302600020704700000000002C0140FC
:1031E000004001400044014000480140000400400C
:1031F00000200040FFFCFFFF70B504000D003820E8
:10320000205C012801D1022070BD012638216654BE
:10321000022039216054002A06D0042A16D0082A38
:1032200029D00C2A39D04CE02900206800F052F84F
:103230002068816908220A4382612068816904222A
:1032400091438161206881692A6911E02900206821
:1032500000F07CF820688169F2020A4382612068EC
:1032600081691B4A0A408261206881692A691202C9
:103270000A43826125E02900206800F09CF820685C
:10328000C16908220A43C2612068C16904229143CE
:10329000C1612068C1692A6911E02900206800F035
:1032A000BDF82068C169F2020A43C2612068C169A1
:1032B000074A0A40C2612068C1692A6912020A43AA
:1032C000C2613920265400203834207070BD0000BF
:1032D000FFFBFFFF70B4026A01239A430262046A93
:1032E0004268856973239D430B682B430225AC43D9
:1032F0008D6825435E4CA04208D05E4EB04205D09A
:103300005D4EB04202D05E4EB0420ED10826B543AB
:103310002E00CD6835430426B543A04208D0554C55
:10332000A04205D0544CA04202D0554CA04205D139
:10333000524C14404E6926438A693243426083618D
:1033400049684163056270BC7047000070B4026A4E
:1033500010239A430262026A43688469494D2540FA
:103360000C6824022C432025AA438D682D011543A7
:103370003F4A904208D1802295432E00CA68150129
:1033800035434022954308E03A4A904205D03A4AF4
:10339000904202D03A4A904206D13B4A1A404B69C9
:1033A0008E691E43B300134343608461496881639F
:1033B000056270BC704770B4026A344B13400362FC
:1033C000046A4268C56973239D430B682B43304DE3
:1033D00025408C6824022C43254DA84207D12D4D51
:1033E0002540CC6826022E432B4C344008E0214D6A
:1033F000A84205D0204DA84202D0214DA84206D1B6
:10340000264D15404A698E69164332012A434260AF
:10341000C3614968C163046270BC704730B4026A1A
:103420001F4B13400362036A4268C469154D25406F
:103430000C6824022C431B4D1D408B681B032B433F
:103440000B4DA84208D00B4DA84205D00A4DA8420A
:1034500002D00B4DA84204D1134D15404A69920188
:103460002A434260C46149680164036230BC70470A
:10347000002C01400040014000440140FFFCFFFFE0
:1034800000480140FF8CFFFFFFF3FFFFFFFEFFFF3F
:10349000FFFDFFFFFFF7FFFFFFFBFFFFFFCFFFFF7A
:1034A000FFEFFFFFFFDFFFFFFFBFFFFF00B581B0B2
:1034B0001948016810220A430260032000F005F851
:1034C00001F022F9002001B000BD10B5040000F0A9
:1034D00027F8FA218900FEF792FBFFF7F0FD0022A2
:1034E00021000020C043FFF7C9FD002010BD0B489C
:1034F0000168491C0160704708480068704711B5B1
:1035000081B0FFF7F9FF0400FFF7F6FF001B0199F8
:103510008842F9D302B010BD00200240B40D002053
:1035200000B581B000F09CFA11A10F4A1268120692
:10353000120F895CC8400D49086001B000BD000051
:1035400000B581B000F08CFA09A1074A13681B0688
:103550001B0FCB5CD840054B186012685205520F08
:10356000895CC84001B000BD04100240D0000020BA
:103570000000000001020304010203040607080919
:10358000F1B59F4C0078C00713D50C20616801404D
:10359000042906D061680840082842D16068C00349
:1035A0003FD52068800304D500984068012800D0EA
:1035B00073E102270098006838401AD00C20616837
:1035C000014006D06168084008285AD16068C003ED
:1035D00057D42068384004D00098C068012800D033
:1035E0005BE12068F821884300990969C90001431B
:1035F000216000980078000775D50098006A0028BF
:10360000606A61D0012101436162FFF775FF050027
:10361000606A384067D1FFF76FFF401B6528F7D31A
:1036200039E10020A070FFF767FF05009D4E80275D
:10363000BF022068384005D0FFF75EFF401BB04254
:10364000F7D328E100984068A070009840680028EF
:103650000BD0FFF751FF050020683840A9D1FFF7D4
:103660004BFF401BB042F7D315E1FFF745FF0500C4
:10367000206838409DD0FFF73FFF401BB042F7D392
:1036800009E10098C068002820680ED0012101439C
:103690002160FFF731FF050020683840A1D1FFF716
:1036A0002BFF401B6528F7D3F5E0012188432060FC
:1036B000FFF722FF0500206838409AD0FFF71CFF73
:1036C000401B6528F7D3E6E0012188436062FFF7DD
:1036D00013FF0500606A384005D0FFF70DFF401B5F
:1036E0006528F7D3D7E000980078400748D5E0690F
:1036F000F9060143E1616C4E3068A10D0143316070
:10370000FFF7FAFE05003068C00505D4FFF7F4FEA8
:10371000401B6528F7D3BEE0206A0521884320625C
:10372000FFF7EAFE05005F4E206A384005D0FFF73C
:10373000E3FE401BB042F7D3ADE0206A0521884389
:1037400000998968014321620098806801280BD1A3
:10375000FFF7D2FE0500206A384011D1FFF7CCFEFA
:10376000401BB042F7D396E0FFF7C6FE0500206A83
:10377000384005D0FFF7C0FE401BB042F7D38AE0C7
:1037800000980078C0061FD500984069012839D1FB
:10379000606B042101436163606B0121014361633C
:1037A000FFF7AAFE0500606B384005D1FFF7A4FEC5
:1037B000401B6528F7D36EE0606BF82188430099C1
:1037C0008969C900014361630098406A002866D096
:1037D00061680C220A40082A5FD03E06AF490228E1
:1037E00020684BD101402160FFF786FE050020686C
:1037F000304022D0FFF780FE401B6528F7D34AE017
:10380000001002400421C9438842606B02D101408C
:103810006163D1E7042101436163606B0121884347
:103820006063FFF769FE0500606B3840CCD0FFF79E
:1038300063FE401B6528F7D32DE0E06A0F21884323
:103840000099C96A0143E1626068954901400098A6
:10385000006B08430099896A014361602068710820
:1038600001432160FFF748FE05002068304016D173
:10387000FFF742FE401B6528F7D30CE001402160B2
:10388000FFF73AFE05002068304008D0FFF734FE0D
:10389000401B6528F7D3032002E0012000E0002050
:1038A00001B0F0BD8913000000700040F3B581B095
:1038B00001277C480068384088425FD27948006818
:1038C000B843029901437748016000683840029983
:1038D000884200D0B0E0022001990968014007D079
:1038E000714C6168F0229143019A92680A436260C8
:1038F000019909680F4000D1A0E0019949686A4C1C
:10390000012902D12068800303E0022903D1206845
:10391000800104D490E02268104000D18CE06068FF
:103920000322904301436160FFF7E6FD0500019823
:1039300040680C2601280AD16068304004287DD0F8
:10394000FFF7DAFD401B59498842F5D366E00228AB
:103950000AD160683040082870D0FFF7CDFD401BC9
:1039600052498842F5D359E06068304066D0FFF78D
:10397000C3FD401B4D498842F6D34FE00220019918
:103980000968014007D0484C6168F0229143019AD0
:1039900092680A43626001990968394040D00199F0
:1039A0004968414C012902D12068800303E00229C3
:1039B00003D12068800103D43EE0226810403BD050
:1039C00060680322904301436160FFF795FD0500A5
:1039D000019840680C2601280AD16068304004280C
:1039E0001ED0FFF789FD401B30498842F5D315E012
:1039F00002280AD160683040082811D0FFF77CFD0A
:103A0000401B2A498842F5D308E06068304007D05F
:103A1000FFF772FD401B25498842F6D303201DE0C5
:103A200020480068B843029901431E4801600068BD
:103A300007400298874201D001200FE001980078EA
:103A4000400707D5184C6068194901400198C068C3
:103A5000084360600320FFF738FD002003B0F0BD8D
:103A600010B5144802680C211140082913D10F2108
:103A700013A3940C0C401C5D836AD00307D50E4839
:103A800013A21940515CFEF7BAF8604310BD0B4811
:103A90004443200010BD084810BD0000FFFFFFFE9A
:103AA000FFFFC2FF00200240001002408913000007
:103AB000FFF8FFFF0410024000127A0000093D00E9
:103AC00002030405060708090A0B0C0D0E0F10105F
:103AD0000102030405060708090A0B0C0D0E0F105E
:103AE000F0B581B00700C348848A9026F60580258A
:103AF0002D02002229003000FEF7CBF9442000F00F
:103B000020FE10E0A4B2002C14D0012229003000C5
:103B1000FEF7BFF9002229003000FEF7BAF9442071
:103B200000F00FFE641EC02000F00BFEFF28E9D15C
:103B3000240408D1012229003000FEF7AAF902204E
:103B4000AD49087006E0002F04D1012229003000A1
:103B5000FEF79FF901B0F0BDFAB581B0040017007F
:103B60000020FFF7BDFF9026F60580252D020022DC
:103B700029003000FEF78DF9202000F0E2FD6846B4
:103B8000007900F0DEFD380000F0DBFD6846007AC9
:103B900000F0D7FD012229003000FEF77AF901205C
:103BA000FFF79EFFAA2000F0CCFD2070AA2000F0B5
:103BB000C8FD6070AA2000F0C4FDA070AA2000F02B
:103BC000C0FDE070AA2000F0BCFD2071AA2000F02A
:103BD000B8FD6071AA2000F0B4FDA071AA2000F029
:103BE000B0FDE071012229003000FEF752F903B068
:103BF000F0BDF0B581B0050000240020FFF770FF94
:103C00009027FF0580263602002231003800FEF79B
:103C100040F9A878001D012808DB285D00F091FD1F
:103C2000641CE4B2A878001D8442F6DB0122310056
:103C30003800FEF72EF901B0F0BD70B50020FFF797
:103C40004FFF9024E40580252D020022290020004A
:103C5000FEF71FF9012000F074FD01222900200069
:103C6000FEF717F90120FFF73BFF624EAA2000F094
:103C700068FD3070AA2000F064FD00027080AA2068
:103C800000F05FFD718801437180AA2000F059FDAA
:103C90003071AA2000F055FD0002F080AA2000F04B
:103CA00050FDF1880143F180AA2000F04AFD3072F6
:103CB000AA2000F046FD7072012229002000FEF7C4
:103CC000E8F870BDF0B581B04A4FBC8A9026F60581
:103CD00080252D02002229003000FEF7DAF844206A
:103CE00000F02FFD10E0A4B2002C14D00122290016
:103CF0003000FEF7CEF8002229003000FEF7C9F8A8
:103D0000442000F01EFD641EC02000F01AFDFF28B4
:103D1000E9D1240408D1012229003000FEF7B9F8C6
:103D200002203549087004E0012229003000FEF726
:103D3000B0F8002229003000FEF7ABF8222000F096
:103D400000FD012229003000FEF7A3F8BC8A002202
:103D500029003000FEF79DF8442000F0F2FC10E04E
:103D6000A4B2002C14D0012229003000FEF791F8F3
:103D7000002229003000FEF78CF8442000F0E1FC1E
:103D8000641EC02000F0DDFCFF28E9D1240407D127
:103D9000012229003000FEF77CF802201649087045
:103DA000AA2000F0CEFC3870AA2000F0CAFC78707F
:103DB000AA2000F0C6FCB870AA2000F0C2FCF8707F
:103DC000AA2000F0BEFC3871AA2000F0BAFC78717D
:103DD000AA2000F0B6FC0002F880AA2000F0B1FC96
:103DE000F9880143F980012229003000FEF751F8DB
:103DF00001B0F0BD00000020AC0D0020F1B58048FE
:103E0000848A9026F60580252D02002229003000A4
:103E1000FEF73FF8442000F094FC7A4F10E0A4B283
:103E2000002C14D0012229003000FEF732F80022C5
:103E300029003000FEF72DF8442000F082FCE41940
:103E4000C02000F07EFCFF28E9D1240408D1012223
:103E500029003000FEF71DF802209549087004E0A3
:103E6000012229003000FEF714F80022290030005A
:103E7000FEF70FF8342000F064FC6846007800F08C
:103E800060FC012229003000FEF703F801B0F0BD0C
:103E9000F7B55B48848A9026F60580252D0200221E
:103EA00029003000FDF7F5FF442000F04AFC554F93
:103EB00010E0A4B2002C14D0012229003000FDF73C
:103EC000E8FF002229003000FDF7E3FF442000F066
:103ED00038FCE419C02000F034FCFF28E9D12404A8
:103EE00008D1012229003000FDF7D3FF02207049DC
:103EF000087004E0012229003000FDF7CAFF00220B
:103F000029003000FDF7C5FF312000F01AFC68469B
:103F1000007800F016FC6846007900F012FC0020E2
:103F200000F00FFC68460089C0B200F00AFC0122D4
:103F300029003000FDF7ADFF03B0F0BDFFB581B043
:103F40002F48848A9026F60580252D02002229001C
:103F50003000FDF79EFF442000F0F3FB294F10E0F6
:103F6000A4B2002C14D0012229003000FDF791FFEB
:103F7000002229003000FDF78CFF442000F0E1FB17
:103F8000E419C02000F0DDFBFF28E9D1240408D1AA
:103F9000012229003000FDF77CFF0220444908700F
:103FA00004E0012229003000FDF773FF0022290000
:103FB0003000FDF76EFF322000F0C3FB6846007949
:103FC00000F0BFFB6846007A00F0BBFB002000F069
:103FD000B8FB68468089C0B200F0B3FB6846007C3D
:103FE00000F0AFFB0A9800F0ACFB0B9800F0A9FBC7
:103FF000012229003000FDF74CFF05B0F0BD0000A4
:1040000000000020FFFF0000F2B506005348848A3C
:104010009027FF0580252D02002229003800FDF79A
:1040200038FF442000F08DFB10E0A4B2002C14D027
:10403000012229003800FDF72CFF0022290038005A
:10404000FDF727FF442000F07CFB641EC02000F039
:1040500078FBFF28E9D1240408D101222900380087
:10406000FDF717FF02201249087004E00122290021
:104070003800FDF70EFF002229003800FDF709FF88
:10408000662000F05EFB68460078002808D0340007
:1040900068460678207800F054FB641C761EF9D13F
:1040A000012229003800FDF7F4FE01B0F0BD000048
:1040B000AC0D0020F2B506002848848A9027FF0541
:1040C00080252D02002229003800FDF7E2FE442061
:1040D00000F037FB10E0A4B2002C14D0012229001C
:1040E0003800FDF7D6FE002229003800FDF7D1FE8A
:1040F000442000F026FB641EC02000F022FBFF28B5
:10410000E9D1240408D1012229003800FDF7C1FEBD
:1041100002201349087004E0012229003800FDF74D
:10412000B8FE002229003800FDF7B3FE772000F02A
:1041300008FB68460078002809D0340068460678F5
:10414000AA2000F0FEFA2070641C761EF8D101222D
:1041500029003800FDF79DFE01B0F0BD00000020F1
:10416000AC0D0020F1B54048848A9026F6058025E4
:104170002D02002229003000FDF78BFE442000F0C4
:10418000E0FA384F10E0A4B2002C14D0012229002C
:104190003000FDF77EFE002229003000FDF779FE99
:1041A000442000F0CEFAE419C02000F0CAFAFF283B
:1041B000E9D1240408D1012229003000FDF769FE6D
:1041C00002206B49087004E0012229003000FDF74D
:1041D00060FE002229003000FDF75BFE152000F094
:1041E000B0FA6846007800F0ACFA012229003000ED
:1041F000FDF74FFE1C48848A002229003000FDF79D
:1042000048FE442000F09DFA10E0A4B2002C14D027
:10421000012229003000FDF73CFE00222900300079
:10422000FDF737FE442000F08CFAE419C02000F0BE
:1042300088FAFF28E9D1240407D10122290030009F
:10424000FDF727FE02204A490870AA2000F079FAFB
:10425000AA2000F076FA012229003000FDF719FEAD
:1042600001B0F0BDFFFF00000000002070B5C04CA1
:1042700080204001A082BF4D012280212800FDF74F
:1042800008FE022000F074FA002280212800FDF7C9
:1042900000FE0A2000F06CFA9026F60580252D021B
:1042A000002229003000FDF7F4FD022000F049FA59
:1042B000012000F046FA002000F043FA012000F04F
:1042C00040FAC92000F03DFAC32000F03AFA8020FD
:1042D00000F037FA012229003000FDF7DAFD022054
:1042E00000F046FA0020FFF7FBFB00222900300017
:1042F000FDF7CFFD202000F024FA002000F021FA85
:10430000002000F01EFA002000F01BFA0122290014
:104310003000FDF7BEFD0120FFF7E2FBAA2000F010
:1043200010FAAA2000F00DFAAA2000F00AFAAA203A
:1043300000F007FAAA2000F004FAAA2000F001FA1F
:10434000AA2000F0FEF9AA2000F0FBF901222900C2
:104350003000FDF79EFDFFF770FC2020A0826088F2
:104360008549884201D0012070BD002070BD000049
:10437000AC0D0020F0B581B081A0FFF73AFC00BF82
:1043800081A0FFF736FC00BF81A0FFF732FC00BF21
:1043900081A0FFF72EFC00BF81A0FFF72AFC00BF21
:1043A00082A0FFF726FC00BF82A0FFF722FC00BF1F
:1043B00082A0FFF71EFC00BF84A0FFF71AFC00BF1D
:1043C0008BA0FFF716FC00BF8DA0FFF712FC00BF0B
:1043D0008FA0FFF70EFC00BF8FA0FFF70AFC00BF05
:1043E0008FA0FFF706FC00BF8FA0FFF702FC00BF05
:1043F0008FA0FFF7FEFB00BF76A0FFF7FAFB00BF20
:104400008EA0FFF7F6FB00BF8EA0FFF7F2FB00BF08
:104410008EA0FFF7EEFB00BF8EA0FFF7EAFB00BF08
:104420008FA0FFF7E6FB00BF91A0FFF7E2FB00BF04
:1044300093A0FFF7DEFB00BF6BA0FFF7DAFB00BF26
:1044400093A0FFF7D6FB00BF64A0FFF7D2FB484C58
:1044500020001830FFF7CDFB90A0FFF7CAFB00BF8C
:1044600092A0FFF7C6FB00BF94A0FFF7C2FB00BFFE
:1044700096A0FFF7BEFB00BF98A0FFF7BAFB00BFF6
:1044800099A0FFF7B6FB20002830FFF7B2FB200011
:104490003030FFF7AEFB20003830FFF7AAFB2000DA
:1044A0004030FFF7A6FB00BF91A0FFF7A2FB00BFC3
:1044B00091A0FFF79EFB00BF91A0FFF79AFBA58A92
:1044C0009027FF0580263602002231003800FDF7D4
:1044D000E0FC442000F035F910E0ADB2002D14D01E
:1044E000012231003800FDF7D4FC002231003800F1
:1044F000FDF7CFFC442000F024F96D1EC02000F031
:1045000020F9FF28E9D12D0408D10122310038001B
:10451000FDF7BFFC02201949087004E001223100B8
:104520003800FDF7B6FC002231003800FDF7B1FC81
:10453000207B00F006F9607B00F003F9A07B00F01F
:1045400000F9E07B00F0FDF8207C00F0FAF8607CD8
:1045500000F0F7F8A07C00F0F4F8E07C00F0F1F84F
:10456000012231003800FDF794FC01B0F0BD0000DD
:10457000000000200004004838440000AC0D00207A
:104580001100020052000000110001036000000051
:1045900011010300033B0100110204000305000A9E
:1045A00011100500640A000A120000001111030036
:1045B0000198F300111201068100000011200C0087
:1045C0000300070C350009C9C38000051120030A48
:1045D000000676001120034C310020001140080035
:1045E000400AAAAA369D20FE11220400087F001D61
:1045F00011200C18010008038000202000E8005E54
:1046000011200C2405761A05720200000012815E4A
:104610001120033001CDA00011200135E000000081
:104620001120033811151500112004402A0CA42272
:10463000112005450300DE0100000000112002509A
:10464000840A0000112002540307000011200157C2
:10465000000000001120055B4004067820000000E7
:1046600011210C00A28126AF3FEEC8C7DBF2020881
:1046700011210C0C070315FC0F00A28126AF3FEEA1
:1046800011210C18C8C7DBF20208070315FC0F0044
:10469000112307002C0E0B040C73030011500C0C9B
:1046A000FFFFFFFFFFFFFFFFFFFFFFFF11500C1891
:1046B000FFFFFFFFFFFFFFFFFFFFFFFF11500C2475
:1046C000FFFFFFFFFFFFFFFFFFFFFFFF11500C3059
:1046D000FFFFFFFFFFFFFFFFFFFFFFFF1150063C43
:1046E000FFFFFFFFFFFF0000111203080A01000097
:1046F0001112020B303000001120014AFF000000AF
:1047000011120100040000007047FEE70068144920
:10471000884200D0704700B585B012480168820C0D
:104720000A4302603820009002200190002002908D
:1047300003210391049069460B48FDF7D7FA05B0B1
:1047400000BD01B582B064200090012301AA02A936
:10475000064800F079F86846007903B000BD000013
:10476000003001401810024000040048400C0020B6
:1047700000B581B0FEF7C3FE01B000BD30B581B019
:10478000040001D1012058E002255D216554FFF7A6
:10479000BDFF20680168402291430160E168284A1A
:1047A000914205D30020F0231B01994204D105E07A
:1047B000E802531E994201D00023A362236B002B11
:1047C00005D1914201D3256301E001212163616894
:1047D000A2680A432169114362690A43A1692B0255
:1047E00019401143E2690A43216A1143A26A0A434C
:1047F00021680A60216B022904D121680A689B00A4
:1048000013430B60A169090C04221140626A0A4338
:10481000616B1143E2680A43104321684860E06A13
:10482000216808612068C169064A0A40C261002007
:10483000206601205D342070002001B030BD0000F2
:1048400001070000FFF70000F6B583B004001E006A
:10485000FEF752FE019000255C20205C012801D16A
:1048600002209CE101275C2167545D20205C012827
:1048700001D002258DE10398002800D188E1049839
:10488000002800D184E1002E00D181E105205D21C6
:1048900060542566049820644620265244202652FF
:1048A0000398A063E687A687A06A7903884209D1A6
:1048B000206801683D4A0A400260206801687A0366
:1048C0000A430260B748E168814203D24621615A37
:1048D000022904DB21684A68B34B134003E02168D6
:1048E0004A683B0313434B60216840220B68134026
:1048F00002D10B681A430A600A9EE168814200D225
:104900008EE0E08F002853D14620205A002867D13E
:10491000A06A7903884200D02CE1FEF7EDFD0290F9
:1049200020688068384037D10020C0438642F7D0E5
:10493000002E05D0FEF7E0FD0299401AB042EFD3F9
:1049400020684168E022914341606068822149000B
:1049500088420BD1A068F903884202D049098842F5
:1049600004D120680168402291430160A06A790364
:10497000884209D1206801680C4A0A400260206818
:1049800001687A030A4302605D2167545C21655423
:10499000206E022101432166E068F021090188426E
:1049A000206800D099E0C068E0E000BFFFDF0000B1
:1049B00020688168890713D5A16B0988C160A06B45
:1049C000801CA063E08F401EE087000408D1A06A2D
:1049D0007903884204D1206801683A030A430260DF
:1049E0004620205A00280ED02068816839400AD01D
:1049F000C068216C0880206C801C20644620205AEE
:104A0000401E462160520020C043864200D178E714
:104A1000FEF772FD0199401AB04200D271E75AE0E8
:104A2000E08F002804D14620205A002822D16FE7C9
:104A300021688A6892071DD5A26B022807DB1088BF
:104A4000C860A06B801CA063E08F801E05E0501C36
:104A5000A06310780873E08F401EE087E08F002885
:104A600008D1A06A7903884204D1206801683A031A
:104A70000A4302604620225A002A22D02068816818
:104A800039401ED0216C022A12DBC0680880206CDD
:104A9000801C20644620205A801E4621605280B22D
:104AA00002280EDA206841683A030A43426008E0AF
:104AB0004A1C2264007B08704620205A401E462172
:104AC00060520020C0438642AAD0FEF715FD01992E
:104AD000401AB042A4D303255BE0007B69460880FE
:104AE00068460088206B022844D1FEF705FD01903E
:104AF00020688068384037D10020C0438642F7D014
:104B0000002E05D0FEF7F8FC0199401AB042EFD311
:104B100020684168E0229143416060688221490039
:104B200088420BD1A068F903884202D04909884223
:104B300004D120680168402291430160A06A790392
:104B4000884209D120680168184A0A40026020683A
:104B500001687A030A4302605D2167545C21655451
:104B6000206E0221014321662068007B694608808F
:104B70006846008820688168C90606D5216E022231
:104B80000A4322660A4981600125206E002800D070
:104B900001255D20275400205C342070280005B0DA
:104BA000F0BD000001070000FFEFFFFFFFDF000086
:104BB000EFFF0000F9B593B01400099108AD002093
:104BC000E8610AE00998139A90470990002800D1FB
:104BD000BEE1E869401CE861641C2178002901D12C
:104BE000E869B7E12529EDD1002028616861A86155
:104BF00002E0010001200843641C21782029F8D03C
:104C000023290ED02B2904D02D2907D030290BD0F1
:104C10000DE001000220084380B2EDE7010004200E
:104C2000F9E701000820F6E701001020F3E72A2940
:104C300012D114990968149A11600A68091D149B0D
:104C400019606A62002A05D5514269620100042098
:104C5000084380B2641C12E0002169620AE06A6ABB
:104C6000BD4B9A4205D093009A1852005118303922
:104C70006962641C21780A00303A0A2AEFD321784D
:104C80002E2903D00021C943296221E0641C217828
:104C90002A290AD114990968149A11600A68091D11
:104CA000149B19602A62641C12E0002129620AE048
:104CB0002A6AA94B9A4205D093009A1852005118BB
:104CC00030392962641C21780A00303A0A2AEFD36D
:104CD00028852678310000BFA0A000F0FDF900284B
:104CE00001D0641C00E000262A202E54285C68288D
:104CF00006D12078682803D162202A216854641CD8
:104D000002A8E8602678641C252E13D0582E40D0C7
:104D1000632E00D19CE0642E74D0692E72D06F2E69
:104D200037D0702E28D0732E0AD0752E31D0782E21
:104D30002FD09AE001202861252069460872A0E062
:104D400014980068149908600668001D149908609A
:104D5000AE602F6A002F03D5300000F0C7F909E0DC
:104D60003A000021300000F0C9F9002801D0801B72
:104D700000E03800686184E01498006814990860C5
:104D80000168001D149A1060089102A8A86078219B
:104D90005AE02A202A5C6C2A01D1149810E0712A6A
:104DA00001D1149802E06A2A149809D10368DB1D26
:104DB000072083431498036003CB149F3B6005E0F6
:104DC000016801600868091D149B19600890682A31
:104DD00001D180B202E0622A01D1C0B2089028203D
:104DE000285C00072BD50898002828D020203043C5
:104DF000782824D13020694608720220286102A850
:104E000046701CE014992A20285C00F0ABF808904A
:104E1000002804D52869411C29612D210DE0288D29
:104E2000810704D52869411C29612B2105E0C007B1
:104E300005D52869411C2961202102AA115402A824
:104E400029694018A860310008A800F0B1F818E0FE
:104E50000120286114980068149908600168001DF9
:104E6000149A1060684601720BE001202861252029
:104E700069460872002E04D02869411C296102A9E4
:104E80000E54686A2969401AA969401A6969401A6A
:104E900001902820285C400710D420206946087023
:104EA000002608E001236A4608A9139800F0FCF8E0
:104EB00000284DD1761C01988642F3DB2F6902AEA3
:104EC0000BE031780998139A9047099000283FD059
:104ED000E869401CE861761C7F1E002FF1D130206C
:104EE00069460870AF69002608E001236A4608A9F0
:104EF000139800F0D9F800282AD1761CBE42F4DBC2
:104F00006F69AE680BE031780998139A9047099061
:104F100000281DD0E869401CE861761C7F1E002F28
:104F2000F1D12820285C400700D456E620206946AD
:104F30000870002600E0761C0198864200DB4CE6F3
:104F400001236A4608A9139800F0AEF80028F2D0B1
:104F50000020C04315B0F0BDFFFFFF7F686C747A7E
:104F60004C000000622815D068280CD06C2818D09E
:104F7000742816D07A2814D10A680A601068121DA5
:104F80000A60002170470A680A601068121D0A60F2
:104F900000B20BE00A680A601068121D0A6040B295
:104FA00004E00A680A601068121D0A60C1177047A1
:104FB000F2B582B00400E06800906846007A6F287D
:104FC00001D1082506E020220243782A01D00A25D3
:104FD00000E01025182721680E00642801D06928F8
:104FE00003D1002901D570420600002E0DD1206AA0
:104FF00000280AD1082D31D12820205C00072DD5AA
:10500000172730200099C87528E07F1E01973000CF
:105010002900FCF7F4FD3031C9B23A2903DB6846B8
:10502000007A513809180098C15530002900FCF762
:10503000E6FD060004D0A0680099C9198842E4D3AF
:10504000082D0BD12820205C000707D50098C05DF3
:10505000302803D07F1E30200099C8551820C01B6F
:1050600060610099C919A160216A884206DA081AAC
:10507000A061208D0B490140218510E000290ED54B
:105080002821615C14220A40102A08D1616A226931
:10509000891AA269891A0F1A012F00DBA76103B0D0
:1050A000F0BD0000EFFF000079B50E0014001D00F8
:1050B000002005E0F069401CF0610020641C6D1EBA
:1050C000002D08D021787068009A90477060002801
:1050D000F0D10020C04376BDC9B200E0401C027888
:1050E0008A4202D0002AF9D100207047010000E076
:1050F000491C0A78002AFBD1081A7047C9B201E09E
:10510000401C521E002A03D003788B42F8D170470E
:1051100000207047F0B597B0FEF7C8F90126099650
:105120000A9602251295E8031390002414940001B6
:10513000159009A8FEF724FA002800D0FEE70727FB
:105140000597069507940894012105A8FEF7AEFB84
:10515000002800D0FEE7FCF76AFCFDF715F9FCF724
:10516000B9FEFCF7E1FEFCF78DFFFCF7D5FFFDF77C
:105170001DF8FDF765F8FDF7AFF8FDF7B5F8FDF799
:10518000F7F8FCF71EFFFCF739FFFCF757FF6748FD
:1051900001686A050A43026001682A040A43026042
:1051A00001686A040A430260002261499020C00538
:1051B000FCF76FFE002280215E48FCF76AFE222089
:1051C000009001960294039469469020C005FCF774
:1051D0008DFD802000900196029403250395694679
:1051E0005448FCF783FD40200090534801900294FE
:1051F00069465048FCF77AFDF0030090019602944E
:10520000039569469020C005FCF770FD002200213F
:105210000720FDF733FF0720FDF74AFF47484849BD
:10522000016082214900416084603902C1600461EB
:105230004461710281611021C1610462446284622F
:10524000C762046308214163FFF798FA002800D081
:10525000FEE7FF20FFF775FA3A4C0A2020700B207A
:1052600060700C2020700D2060702E482E490A7B43
:10527000C271497B0172FDF709FD2078FDF7EAFD57
:1052800039A100BF33A000F07FF8FCF7D9FA010084
:1052900038A000F079F8FCF73FFC002017B0F0BD13
:1052A00070B5FEF729F90600274C65780A21FCF74E
:1052B000A6FC810008184000301A20D16068401C0C
:1052C0006060207800281AD02078012811D1A80722
:1052D00004D11E48016802224A4002606D1CEDB2F2
:1052E000102D0CDB002000250221184A516120708E
:1052F00005E02078022802D100202070002565708A
:105300001348817C00290BD0491E8174090607D1FE
:105310000189817200210181017801220A43027012
:1053200070BD000018000020D82F000814100240A3
:10533000228000000004004800002110400C0020E2
:1053400000300140920D0020A40D00201400004800
:10535000EC0600204D6F6466697920446174652015
:105360003D20257300000000446563203238203260
:10537000303138000D0A56657273696F6E203D201A
:1053800025303878000000000EB400B582B003A9C3
:1053900000916B4602000121034878440A30FFF770
:1053A00009FC029906B00847A905000070B5040081
:1053B000674D29682068674EB04201D1082211E08C
:1053C000654B984201D180220CE01433984201D100
:1053D000DA0C07E01433984202D18022120201E075
:1053E000802212030A402AD0082102680A4026D0EF
:1053F000026808239A4302602068B0420FD05649E1
:10540000884201D180210AE01431884201D1C90CBF
:1054100005E01431884201D1190300E019046960E4
:10542000606B01210143616304202121605400204D
:1054300020216054216B080001D020008847296892
:105440002068B04201D1042211E0434B984201D1BF
:1054500040220CE01433984201D11A0D07E01433B6
:10546000984202D18022D20101E08022D2020A4079
:1054700027D0042102680A4023D00268920602D491
:1054800002688A4302602068B04211D032498842E3
:1054900001D140210CE01431884201D1090D07E00F
:1054A0001431884202D18021C90101E08021C90262
:1054B0006960112021216054E16A080001D02000B8
:1054C000884729682068B04201D1022211E0224BAE
:1054D000984201D120220CE01433984201D15A0D98
:1054E00007E01433984202D18022920101E0802229
:1054F00092020A402AD0022102680A4026D02022C5
:105500000368134002D103688B4303602068B042F4
:105510000FD01149884201D120210AE0143188427C
:1055200001D1490D05E01431884201D1110200E09A
:1055300011036960606B60630120212160540020C9
:10554000A054A16A080001D02000884770BD000067
:1055500000000240080002401C0002407047FEE7C5
:105560007047704700B581B0FDF7C1FFFFF798FEA7
:1055700001B000BD33480168C90700D4704700B5C9
:1055800081B00121C94341602F4800F067F8FBF763
:105590008DFF01B000BD2D480168C90700D47047D8
:1055A00000B581B00121C9434160FBF7D6FF01B0CE
:1055B00000BD00B581B00120FCF770FC01B000BD5A
:1055C00000B581B08020C000FCF768FC802000019D
:1055D000FCF764FC80204001FCF760FC4020FCF7F5
:1055E0005DFC01B000BD10B5194C200000F0A4F81E
:1055F0002000FCF71BFF10BD70B5164D280000F011
:105600009BF8280000F098F80024E44326002800C6
:10561000FDF798F8012801D0761EF8D10E4E012230
:1056200031002800FDF740F8002801D0641EF6D1B3
:1056300070BD00B581B00448C06BFFF7B7FE01B084
:1056400000BD00000C400140F00300200C100040A1
:10565000600B00200C07002008070020F0B581B087
:105660000400002520680426816831405CD1402177
:10567000615C012901D1022058E001274022A75492
:10568000E169012941D0009581688907890F0129C5
:1056900005D10168394038D1C168090435D4816821
:1056A000244A0A402AD18168394381600098302811
:1056B00017D20098401C00900098302811D2009812
:1056C000401C0090009830280BD20098401C00909D
:1056D0000098302805D20098401C0090009830288F
:1056E000E7D3FDF709FF00902068006838400CD12F
:1056F000FDF702FF0099401A0328F5D341202654F4
:10570000606C3843606401250AE012204121605436
:1057100065641C2021680860206881680E438660EB
:1057200000204034207000E00225280001B0F0BDC8
:10573000000000001700008070B5040020680125FB
:10574000C169294008D00168C90505D50562E06E28
:105750002843E0666921655421680220CA69024035
:1057600009D08A682A4006D00862E16E04220A4302
:10577000E2666922A55421680422CB69134008D04F
:105780008B682B4005D00A62E16E0843E066692110
:10579000655420680826C169314008D081682940D5
:1057A00005D00662E06E3043E06669216554E06E24
:1057B000002802D02000FCF78DFE20682021C2695D
:1057C0000A4009D00068014006D02000FCF7F1FF34
:1057D000206881690E43866120688021C2690A4081
:1057E00005D00068014002D02000FCF7AEFF206821
:1057F0004021C2690A4017D00268114014D00168E4
:105800004022914301606920205C322803D122208C
:105810006921605405E020688168A943816069209E
:1058200025542000FCF726FE70BDFEE711480168F4
:1058300001220A43026041680F4A0A40426001683F
:105840000E4A0A40026001680D4A0A40026041683F
:105850000C4A0A404260C16A0F229143C162016B47
:10586000094A0A400263416B0122914341630021CE
:1058700081607047001002400CB8FF08FFFFF6FE81
:10588000FFFFFBFFFFFFC0FFECFEFFFF30B4012175
:105890000268001D002A0FD00368C318446808304E
:1058A0000C4202D04D466D1E64191D6825601B1DFB
:1058B000241D121FECD0F8E730BC704710B5074923
:1058C00079441831064C7C44163404E0081D0A68FB
:1058D000891888470100A142F8D110BD08000000D6
:1058E000280000006FD7FFFFD00C0000E800002068
:1058F0000000000099FFFFFFE8000000B400000076
:10590000000000200000000000F00BF8002801D08B
:10591000FFF7D4FF0020C046C046FFF7FBFB00F0B6
:1059200002F80120704780B500F002F801BDFEE7E3
:105930000746384600F002F8FBE7FEE780B5C046B0
:10594000C046024A11001820ABBEFBE72600020049
:1059500038B505000C00200000F006F8A04200D089
:105960000025280032BDFEE780B50249FDF765FB42
:1059700002BD00BF480000200148804701480047A1
:105980002D58000889590008C046C046C046C04688
:10599000FFF7BAFFFEE7FEE7FEE7FEE7FEE7FEE7FA
:1059A000FEE7FEE7FEE7FEE7FEE7FEE7FEE70000B4
:1059B00000000000000000000000000013200000B4
:1059C000000000000000000011500C00100304044F
:1059D00004FFFFFFFFFFFFFF1112040D000106A2ED
:1059E0001112041101000222111204210001068289
:1059F000111204250100020202040101A40C00207E
:105A0000F40C0020A40C0020A40C0020A40C002006
:105A1000850000206C000020000000000000000055
:105A20000000000000000000000000000000000076
:105A30000000000000000000000000000000000066
:105A40000000000000000000000000000000000056
:105A50000000000000000300003801400044004046
:105A60000000004800000048000000480000004816
:105A700000000000000000000102030406070809FE
:105A800000127A00000000480000004800000048B2
:085A90000000004801010000C4
:04000005080059890D
:00000001FF
